{
	"romantointeger.sol": {
		"Roman": {
			"abi": [
				{
					"inputs": [
						{
							"internalType": "uint256",
							"name": "num",
							"type": "uint256"
						}
					],
					"name": "intToRoman",
					"outputs": [
						{
							"internalType": "string",
							"name": "",
							"type": "string"
						}
					],
					"stateMutability": "pure",
					"type": "function"
				},
				{
					"inputs": [
						{
							"internalType": "string",
							"name": "s",
							"type": "string"
						}
					],
					"name": "romanToInt",
					"outputs": [
						{
							"internalType": "uint256",
							"name": "",
							"type": "uint256"
						}
					],
					"stateMutability": "pure",
					"type": "function"
				}
			],
			"devdoc": {
				"kind": "dev",
				"methods": {},
				"version": 1
			},
			"evm": {
				"assembly": "    /* \"romantointeger.sol\":57:2233  contract Roman {... */\n  mstore(0x40, 0x80)\n  callvalue\n  dup1\n  iszero\n  tag_1\n  jumpi\n  0x00\n  dup1\n  revert\ntag_1:\n  pop\n  dataSize(sub_0)\n  dup1\n  dataOffset(sub_0)\n  0x00\n  codecopy\n  0x00\n  return\nstop\n\nsub_0: assembly {\n        /* \"romantointeger.sol\":57:2233  contract Roman {... */\n      mstore(0x40, 0x80)\n      callvalue\n      dup1\n      iszero\n      tag_1\n      jumpi\n      0x00\n      dup1\n      revert\n    tag_1:\n      pop\n      jumpi(tag_2, lt(calldatasize, 0x04))\n      shr(0xe0, calldataload(0x00))\n      dup1\n      0x0cbc513a\n      eq\n      tag_3\n      jumpi\n      dup1\n      0xcb159dfe\n      eq\n      tag_4\n      jumpi\n    tag_2:\n      0x00\n      dup1\n      revert\n        /* \"romantointeger.sol\":1482:2229  function intToRoman(uint256 num) public pure returns (string memory) {... */\n    tag_3:\n      tag_5\n      0x04\n      dup1\n      calldatasize\n      sub\n      dup2\n      add\n      swap1\n      tag_6\n      swap2\n      swap1\n      tag_7\n      jump\t// in\n    tag_6:\n      tag_8\n      jump\t// in\n    tag_5:\n      mload(0x40)\n      tag_9\n      swap2\n      swap1\n      tag_10\n      jump\t// in\n    tag_9:\n      mload(0x40)\n      dup1\n      swap2\n      sub\n      swap1\n      return\n        /* \"romantointeger.sol\":488:1446  function romanToInt(string memory s) public pure returns (uint256) {... */\n    tag_4:\n      tag_11\n      0x04\n      dup1\n      calldatasize\n      sub\n      dup2\n      add\n      swap1\n      tag_12\n      swap2\n      swap1\n      tag_13\n      jump\t// in\n    tag_12:\n      tag_14\n      jump\t// in\n    tag_11:\n      mload(0x40)\n      tag_15\n      swap2\n      swap1\n      tag_16\n      jump\t// in\n    tag_15:\n      mload(0x40)\n      dup1\n      swap2\n      sub\n      swap1\n      return\n        /* \"romantointeger.sol\":1482:2229  function intToRoman(uint256 num) public pure returns (string memory) {... */\n    tag_8:\n        /* \"romantointeger.sol\":1536:1549  string memory */\n      0x60\n        /* \"romantointeger.sol\":1576:1577  1 */\n      0x01\n        /* \"romantointeger.sol\":1569:1572  num */\n      dup3\n        /* \"romantointeger.sol\":1569:1577  num >= 1 */\n      lt\n      iszero\n        /* \"romantointeger.sol\":1569:1592  num >= 1 && num <= 3999 */\n      dup1\n      iszero\n      tag_18\n      jumpi\n      pop\n        /* \"romantointeger.sol\":1588:1592  3999 */\n      0x0f9f\n        /* \"romantointeger.sol\":1581:1584  num */\n      dup3\n        /* \"romantointeger.sol\":1581:1592  num <= 3999 */\n      gt\n      iszero\n        /* \"romantointeger.sol\":1569:1592  num >= 1 && num <= 3999 */\n    tag_18:\n        /* \"romantointeger.sol\":1561:1630  require(num >= 1 && num <= 3999, \"Number must be between 1 and 3999\") */\n      tag_19\n      jumpi\n      mload(0x40)\n      0x08c379a000000000000000000000000000000000000000000000000000000000\n      dup2\n      mstore\n      0x04\n      add\n      tag_20\n      swap1\n      tag_21\n      jump\t// in\n    tag_20:\n      mload(0x40)\n      dup1\n      swap2\n      sub\n      swap1\n      revert\n    tag_19:\n        /* \"romantointeger.sol\":1649:1674  uint256[13] memory values */\n      0x00\n        /* \"romantointeger.sol\":1649:1774  uint256[13] memory values = [... */\n      mload(0x40)\n      dup1\n      0x01a0\n      add\n      0x40\n      mstore\n      dup1\n        /* \"romantointeger.sol\":1699:1703  1000 */\n      0x03e8\n        /* \"romantointeger.sol\":1649:1774  uint256[13] memory values = [... */\n      dup2\n      mstore\n      0x20\n      add\n        /* \"romantointeger.sol\":1706:1709  900 */\n      0x0384\n        /* \"romantointeger.sol\":1649:1774  uint256[13] memory values = [... */\n      dup2\n      mstore\n      0x20\n      add\n        /* \"romantointeger.sol\":1711:1714  500 */\n      0x01f4\n        /* \"romantointeger.sol\":1649:1774  uint256[13] memory values = [... */\n      dup2\n      mstore\n      0x20\n      add\n        /* \"romantointeger.sol\":1716:1719  400 */\n      0x0190\n        /* \"romantointeger.sol\":1649:1774  uint256[13] memory values = [... */\n      dup2\n      mstore\n      0x20\n      add\n        /* \"romantointeger.sol\":1721:1724  100 */\n      0x64\n        /* \"romantointeger.sol\":1649:1774  uint256[13] memory values = [... */\n      dup2\n      mstore\n      0x20\n      add\n        /* \"romantointeger.sol\":1738:1740  90 */\n      0x5a\n        /* \"romantointeger.sol\":1649:1774  uint256[13] memory values = [... */\n      dup2\n      mstore\n      0x20\n      add\n        /* \"romantointeger.sol\":1742:1744  50 */\n      0x32\n        /* \"romantointeger.sol\":1649:1774  uint256[13] memory values = [... */\n      dup2\n      mstore\n      0x20\n      add\n        /* \"romantointeger.sol\":1746:1748  40 */\n      0x28\n        /* \"romantointeger.sol\":1649:1774  uint256[13] memory values = [... */\n      dup2\n      mstore\n      0x20\n      add\n        /* \"romantointeger.sol\":1750:1752  10 */\n      0x0a\n        /* \"romantointeger.sol\":1649:1774  uint256[13] memory values = [... */\n      dup2\n      mstore\n      0x20\n      add\n        /* \"romantointeger.sol\":1754:1755  9 */\n      0x09\n        /* \"romantointeger.sol\":1649:1774  uint256[13] memory values = [... */\n      dup2\n      mstore\n      0x20\n      add\n        /* \"romantointeger.sol\":1757:1758  5 */\n      0x05\n        /* \"romantointeger.sol\":1649:1774  uint256[13] memory values = [... */\n      dup2\n      mstore\n      0x20\n      add\n        /* \"romantointeger.sol\":1760:1761  4 */\n      0x04\n        /* \"romantointeger.sol\":1649:1774  uint256[13] memory values = [... */\n      dup2\n      mstore\n      0x20\n      add\n        /* \"romantointeger.sol\":1763:1764  1 */\n      0x01\n        /* \"romantointeger.sol\":1649:1774  uint256[13] memory values = [... */\n      dup2\n      mstore\n      pop\n      swap1\n      pop\n        /* \"romantointeger.sol\":1793:1818  string[13] memory symbols */\n      0x00\n        /* \"romantointeger.sol\":1793:1926  string[13] memory symbols = [... */\n      mload(0x40)\n      dup1\n      0x01a0\n      add\n      0x40\n      mstore\n      dup1\n      mload(0x40)\n      dup1\n      0x40\n      add\n      0x40\n      mstore\n      dup1\n      0x01\n      dup2\n      mstore\n      0x20\n      add\n      0x4d00000000000000000000000000000000000000000000000000000000000000\n      dup2\n      mstore\n      pop\n      dup2\n      mstore\n      0x20\n      add\n      mload(0x40)\n      dup1\n      0x40\n      add\n      0x40\n      mstore\n      dup1\n      0x02\n      dup2\n      mstore\n      0x20\n      add\n      0x434d000000000000000000000000000000000000000000000000000000000000\n      dup2\n      mstore\n      pop\n      dup2\n      mstore\n      0x20\n      add\n      mload(0x40)\n      dup1\n      0x40\n      add\n      0x40\n      mstore\n      dup1\n      0x01\n      dup2\n      mstore\n      0x20\n      add\n      0x4400000000000000000000000000000000000000000000000000000000000000\n      dup2\n      mstore\n      pop\n      dup2\n      mstore\n      0x20\n      add\n      mload(0x40)\n      dup1\n      0x40\n      add\n      0x40\n      mstore\n      dup1\n      0x02\n      dup2\n      mstore\n      0x20\n      add\n      0x4344000000000000000000000000000000000000000000000000000000000000\n      dup2\n      mstore\n      pop\n      dup2\n      mstore\n      0x20\n      add\n      mload(0x40)\n      dup1\n      0x40\n      add\n      0x40\n      mstore\n      dup1\n      0x01\n      dup2\n      mstore\n      0x20\n      add\n      0x4300000000000000000000000000000000000000000000000000000000000000\n      dup2\n      mstore\n      pop\n      dup2\n      mstore\n      0x20\n      add\n      mload(0x40)\n      dup1\n      0x40\n      add\n      0x40\n      mstore\n      dup1\n      0x02\n      dup2\n      mstore\n      0x20\n      add\n      0x5843000000000000000000000000000000000000000000000000000000000000\n      dup2\n      mstore\n      pop\n      dup2\n      mstore\n      0x20\n      add\n      mload(0x40)\n      dup1\n      0x40\n      add\n      0x40\n      mstore\n      dup1\n      0x01\n      dup2\n      mstore\n      0x20\n      add\n      0x4c00000000000000000000000000000000000000000000000000000000000000\n      dup2\n      mstore\n      pop\n      dup2\n      mstore\n      0x20\n      add\n      mload(0x40)\n      dup1\n      0x40\n      add\n      0x40\n      mstore\n      dup1\n      0x02\n      dup2\n      mstore\n      0x20\n      add\n      0x584c000000000000000000000000000000000000000000000000000000000000\n      dup2\n      mstore\n      pop\n      dup2\n      mstore\n      0x20\n      add\n      mload(0x40)\n      dup1\n      0x40\n      add\n      0x40\n      mstore\n      dup1\n      0x01\n      dup2\n      mstore\n      0x20\n      add\n      0x5800000000000000000000000000000000000000000000000000000000000000\n      dup2\n      mstore\n      pop\n      dup2\n      mstore\n      0x20\n      add\n      mload(0x40)\n      dup1\n      0x40\n      add\n      0x40\n      mstore\n      dup1\n      0x02\n      dup2\n      mstore\n      0x20\n      add\n      0x4958000000000000000000000000000000000000000000000000000000000000\n      dup2\n      mstore\n      pop\n      dup2\n      mstore\n      0x20\n      add\n      mload(0x40)\n      dup1\n      0x40\n      add\n      0x40\n      mstore\n      dup1\n      0x01\n      dup2\n      mstore\n      0x20\n      add\n      0x5600000000000000000000000000000000000000000000000000000000000000\n      dup2\n      mstore\n      pop\n      dup2\n      mstore\n      0x20\n      add\n      mload(0x40)\n      dup1\n      0x40\n      add\n      0x40\n      mstore\n      dup1\n      0x02\n      dup2\n      mstore\n      0x20\n      add\n      0x4956000000000000000000000000000000000000000000000000000000000000\n      dup2\n      mstore\n      pop\n      dup2\n      mstore\n      0x20\n      add\n      mload(0x40)\n      dup1\n      0x40\n      add\n      0x40\n      mstore\n      dup1\n      0x01\n      dup2\n      mstore\n      0x20\n      add\n      0x4900000000000000000000000000000000000000000000000000000000000000\n      dup2\n      mstore\n      pop\n      dup2\n      mstore\n      pop\n      swap1\n      pop\n        /* \"romantointeger.sol\":1945:1965  string memory result */\n      0x00\n        /* \"romantointeger.sol\":1945:1970  string memory result = \"\" */\n      mload(0x40)\n      dup1\n      0x20\n      add\n      0x40\n      mstore\n      dup1\n      0x00\n      dup2\n      mstore\n      pop\n      swap1\n      pop\n        /* \"romantointeger.sol\":1994:2003  uint256 i */\n      0x00\n        /* \"romantointeger.sol\":1989:2191  for (uint256 i = 0; i < 13; i++) {... */\n    tag_22:\n        /* \"romantointeger.sol\":2013:2015  13 */\n      0x0d\n        /* \"romantointeger.sol\":2009:2010  i */\n      dup2\n        /* \"romantointeger.sol\":2009:2015  i < 13 */\n      lt\n        /* \"romantointeger.sol\":1989:2191  for (uint256 i = 0; i < 13; i++) {... */\n      iszero\n      tag_23\n      jumpi\n        /* \"romantointeger.sol\":2036:2181  while (num >= values[i]) {... */\n    tag_25:\n        /* \"romantointeger.sol\":2050:2056  values */\n      dup4\n        /* \"romantointeger.sol\":2057:2058  i */\n      dup2\n        /* \"romantointeger.sol\":2050:2059  values[i] */\n      0x0d\n      dup2\n      lt\n      tag_27\n      jumpi\n      tag_28\n      tag_29\n      jump\t// in\n    tag_28:\n    tag_27:\n      0x20\n      mul\n      add\n      mload\n        /* \"romantointeger.sol\":2043:2046  num */\n      dup7\n        /* \"romantointeger.sol\":2043:2059  num >= values[i] */\n      lt\n        /* \"romantointeger.sol\":2036:2181  while (num >= values[i]) {... */\n      tag_26\n      jumpi\n        /* \"romantointeger.sol\":2112:2118  result */\n      dup2\n        /* \"romantointeger.sol\":2120:2127  symbols */\n      dup4\n        /* \"romantointeger.sol\":2128:2129  i */\n      dup3\n        /* \"romantointeger.sol\":2120:2130  symbols[i] */\n      0x0d\n      dup2\n      lt\n      tag_30\n      jumpi\n      tag_31\n      tag_29\n      jump\t// in\n    tag_31:\n    tag_30:\n      0x20\n      mul\n      add\n      mload\n        /* \"romantointeger.sol\":2095:2131  abi.encodePacked(result, symbols[i]) */\n      add(0x20, mload(0x40))\n      tag_32\n      swap3\n      swap2\n      swap1\n      tag_33\n      jump\t// in\n    tag_32:\n      mload(0x40)\n      0x20\n      dup2\n      dup4\n      sub\n      sub\n      dup2\n      mstore\n      swap1\n      0x40\n      mstore\n        /* \"romantointeger.sol\":2079:2132  result = string(abi.encodePacked(result, symbols[i])) */\n      swap2\n      pop\n        /* \"romantointeger.sol\":2157:2163  values */\n      dup4\n        /* \"romantointeger.sol\":2164:2165  i */\n      dup2\n        /* \"romantointeger.sol\":2157:2166  values[i] */\n      0x0d\n      dup2\n      lt\n      tag_34\n      jumpi\n      tag_35\n      tag_29\n      jump\t// in\n    tag_35:\n    tag_34:\n      0x20\n      mul\n      add\n      mload\n        /* \"romantointeger.sol\":2150:2166  num -= values[i] */\n      dup7\n      tag_36\n      swap2\n      swap1\n      tag_37\n      jump\t// in\n    tag_36:\n      swap6\n      pop\n        /* \"romantointeger.sol\":2036:2181  while (num >= values[i]) {... */\n      jump(tag_25)\n    tag_26:\n        /* \"romantointeger.sol\":2017:2020  i++ */\n      dup1\n      dup1\n      0x01\n      add\n      swap2\n      pop\n      pop\n        /* \"romantointeger.sol\":1989:2191  for (uint256 i = 0; i < 13; i++) {... */\n      jump(tag_22)\n    tag_23:\n      pop\n        /* \"romantointeger.sol\":2216:2222  result */\n      dup1\n        /* \"romantointeger.sol\":2209:2222  return result */\n      swap4\n      pop\n      pop\n      pop\n      pop\n        /* \"romantointeger.sol\":1482:2229  function intToRoman(uint256 num) public pure returns (string memory) {... */\n      swap2\n      swap1\n      pop\n      jump\t// out\n        /* \"romantointeger.sol\":488:1446  function romanToInt(string memory s) public pure returns (uint256) {... */\n    tag_14:\n        /* \"romantointeger.sol\":546:553  uint256 */\n      0x00\n        /* \"romantointeger.sol\":565:588  bytes memory romanBytes */\n      dup1\n        /* \"romantointeger.sol\":597:598  s */\n      dup3\n        /* \"romantointeger.sol\":565:599  bytes memory romanBytes = bytes(s) */\n      swap1\n      pop\n        /* \"romantointeger.sol\":609:622  int256 result */\n      0x00\n        /* \"romantointeger.sol\":636:650  uint256 length */\n      dup1\n        /* \"romantointeger.sol\":653:663  romanBytes */\n      dup3\n        /* \"romantointeger.sol\":653:670  romanBytes.length */\n      mload\n        /* \"romantointeger.sol\":636:670  uint256 length = romanBytes.length */\n      swap1\n      pop\n        /* \"romantointeger.sol\":694:703  uint256 i */\n      0x00\n        /* \"romantointeger.sol\":689:1399  for (uint256 i = 0; i < length; i++) {... */\n    tag_39:\n        /* \"romantointeger.sol\":713:719  length */\n      dup2\n        /* \"romantointeger.sol\":709:710  i */\n      dup2\n        /* \"romantointeger.sol\":709:719  i < length */\n      lt\n        /* \"romantointeger.sol\":689:1399  for (uint256 i = 0; i < length; i++) {... */\n      iszero\n      tag_40\n      jumpi\n        /* \"romantointeger.sol\":740:759  int256 currentValue */\n      0x00\n        /* \"romantointeger.sol\":769:792  getValue(romanBytes[i]) */\n      tag_42\n        /* \"romantointeger.sol\":778:788  romanBytes */\n      dup6\n        /* \"romantointeger.sol\":789:790  i */\n      dup4\n        /* \"romantointeger.sol\":778:791  romanBytes[i] */\n      dup2\n      mload\n      dup2\n      lt\n      tag_43\n      jumpi\n      tag_44\n      tag_29\n      jump\t// in\n    tag_44:\n    tag_43:\n      0x20\n      add\n      add\n      mload\n      0xf8\n      shr\n      0xf8\n      shl\n        /* \"romantointeger.sol\":769:777  getValue */\n      tag_45\n        /* \"romantointeger.sol\":769:792  getValue(romanBytes[i]) */\n      jump\t// in\n    tag_42:\n        /* \"romantointeger.sol\":740:793  int256 currentValue = int256(getValue(romanBytes[i])) */\n      swap1\n      pop\n        /* \"romantointeger.sol\":910:911  1 */\n      0x01\n        /* \"romantointeger.sol\":901:907  length */\n      dup4\n        /* \"romantointeger.sol\":901:911  length - 1 */\n      tag_46\n      swap2\n      swap1\n      tag_37\n      jump\t// in\n    tag_46:\n        /* \"romantointeger.sol\":897:898  i */\n      dup3\n        /* \"romantointeger.sol\":897:911  i < length - 1 */\n      lt\n        /* \"romantointeger.sol\":893:1389  if (i < length - 1) {... */\n      iszero\n      tag_47\n      jumpi\n        /* \"romantointeger.sol\":931:947  int256 nextValue */\n      0x00\n        /* \"romantointeger.sol\":957:984  getValue(romanBytes[i + 1]) */\n      tag_48\n        /* \"romantointeger.sol\":966:976  romanBytes */\n      dup7\n        /* \"romantointeger.sol\":981:982  1 */\n      0x01\n        /* \"romantointeger.sol\":977:978  i */\n      dup6\n        /* \"romantointeger.sol\":977:982  i + 1 */\n      tag_49\n      swap2\n      swap1\n      tag_50\n      jump\t// in\n    tag_49:\n        /* \"romantointeger.sol\":966:983  romanBytes[i + 1] */\n      dup2\n      mload\n      dup2\n      lt\n      tag_51\n      jumpi\n      tag_52\n      tag_29\n      jump\t// in\n    tag_52:\n    tag_51:\n      0x20\n      add\n      add\n      mload\n      0xf8\n      shr\n      0xf8\n      shl\n        /* \"romantointeger.sol\":957:965  getValue */\n      tag_45\n        /* \"romantointeger.sol\":957:984  getValue(romanBytes[i + 1]) */\n      jump\t// in\n    tag_48:\n        /* \"romantointeger.sol\":931:985  int256 nextValue = int256(getValue(romanBytes[i + 1])) */\n      swap1\n      pop\n        /* \"romantointeger.sol\":1121:1130  nextValue */\n      dup1\n        /* \"romantointeger.sol\":1106:1118  currentValue */\n      dup3\n        /* \"romantointeger.sol\":1106:1130  currentValue < nextValue */\n      slt\n        /* \"romantointeger.sol\":1102:1264  if (currentValue < nextValue) {... */\n      iszero\n      tag_53\n      jumpi\n        /* \"romantointeger.sol\":1164:1176  currentValue */\n      dup2\n        /* \"romantointeger.sol\":1154:1176  result -= currentValue */\n      dup6\n      tag_54\n      swap2\n      swap1\n      tag_55\n      jump\t// in\n    tag_54:\n      swap5\n      pop\n        /* \"romantointeger.sol\":1102:1264  if (currentValue < nextValue) {... */\n      jump(tag_56)\n    tag_53:\n        /* \"romantointeger.sol\":1233:1245  currentValue */\n      dup2\n        /* \"romantointeger.sol\":1223:1245  result += currentValue */\n      dup6\n      tag_57\n      swap2\n      swap1\n      tag_58\n      jump\t// in\n    tag_57:\n      swap5\n      pop\n        /* \"romantointeger.sol\":1102:1264  if (currentValue < nextValue) {... */\n    tag_56:\n        /* \"romantointeger.sol\":913:1278  {... */\n      pop\n        /* \"romantointeger.sol\":893:1389  if (i < length - 1) {... */\n      jump(tag_59)\n    tag_47:\n        /* \"romantointeger.sol\":1362:1374  currentValue */\n      dup1\n        /* \"romantointeger.sol\":1352:1374  result += currentValue */\n      dup5\n      tag_60\n      swap2\n      swap1\n      tag_58\n      jump\t// in\n    tag_60:\n      swap4\n      pop\n        /* \"romantointeger.sol\":893:1389  if (i < length - 1) {... */\n    tag_59:\n        /* \"romantointeger.sol\":726:1399  {... */\n      pop\n        /* \"romantointeger.sol\":721:724  i++ */\n      dup1\n      dup1\n      0x01\n      add\n      swap2\n      pop\n      pop\n        /* \"romantointeger.sol\":689:1399  for (uint256 i = 0; i < length; i++) {... */\n      jump(tag_39)\n    tag_40:\n      pop\n        /* \"romantointeger.sol\":1432:1438  result */\n      dup2\n        /* \"romantointeger.sol\":1417:1439  return uint256(result) */\n      swap4\n      pop\n      pop\n      pop\n      pop\n        /* \"romantointeger.sol\":488:1446  function romanToInt(string memory s) public pure returns (uint256) {... */\n      swap2\n      swap1\n      pop\n      jump\t// out\n        /* \"romantointeger.sol\":88:454  function getValue(bytes1 char) private pure returns (uint256) {... */\n    tag_45:\n        /* \"romantointeger.sol\":141:148  uint256 */\n      0x00\n        /* \"romantointeger.sol\":164:175  char == 'I' */\n      0x4900000000000000000000000000000000000000000000000000000000000000\n        /* \"romantointeger.sol\":164:168  char */\n      dup3\n        /* \"romantointeger.sol\":164:175  char == 'I' */\n      not(0xffffffffffffffffffffffffffffffffffffffffffffffffffffffffffffff)\n      and\n      sub\n        /* \"romantointeger.sol\":160:185  if (char == 'I') return 1 */\n      tag_62\n      jumpi\n        /* \"romantointeger.sol\":184:185  1 */\n      0x01\n        /* \"romantointeger.sol\":177:185  return 1 */\n      swap1\n      pop\n      jump(tag_61)\n        /* \"romantointeger.sol\":160:185  if (char == 'I') return 1 */\n    tag_62:\n        /* \"romantointeger.sol\":199:210  char == 'V' */\n      0x5600000000000000000000000000000000000000000000000000000000000000\n        /* \"romantointeger.sol\":199:203  char */\n      dup3\n        /* \"romantointeger.sol\":199:210  char == 'V' */\n      not(0xffffffffffffffffffffffffffffffffffffffffffffffffffffffffffffff)\n      and\n      sub\n        /* \"romantointeger.sol\":195:220  if (char == 'V') return 5 */\n      tag_63\n      jumpi\n        /* \"romantointeger.sol\":219:220  5 */\n      0x05\n        /* \"romantointeger.sol\":212:220  return 5 */\n      swap1\n      pop\n      jump(tag_61)\n        /* \"romantointeger.sol\":195:220  if (char == 'V') return 5 */\n    tag_63:\n        /* \"romantointeger.sol\":234:245  char == 'X' */\n      0x5800000000000000000000000000000000000000000000000000000000000000\n        /* \"romantointeger.sol\":234:238  char */\n      dup3\n        /* \"romantointeger.sol\":234:245  char == 'X' */\n      not(0xffffffffffffffffffffffffffffffffffffffffffffffffffffffffffffff)\n      and\n      sub\n        /* \"romantointeger.sol\":230:256  if (char == 'X') return 10 */\n      tag_64\n      jumpi\n        /* \"romantointeger.sol\":254:256  10 */\n      0x0a\n        /* \"romantointeger.sol\":247:256  return 10 */\n      swap1\n      pop\n      jump(tag_61)\n        /* \"romantointeger.sol\":230:256  if (char == 'X') return 10 */\n    tag_64:\n        /* \"romantointeger.sol\":270:281  char == 'L' */\n      0x4c00000000000000000000000000000000000000000000000000000000000000\n        /* \"romantointeger.sol\":270:274  char */\n      dup3\n        /* \"romantointeger.sol\":270:281  char == 'L' */\n      not(0xffffffffffffffffffffffffffffffffffffffffffffffffffffffffffffff)\n      and\n      sub\n        /* \"romantointeger.sol\":266:292  if (char == 'L') return 50 */\n      tag_65\n      jumpi\n        /* \"romantointeger.sol\":290:292  50 */\n      0x32\n        /* \"romantointeger.sol\":283:292  return 50 */\n      swap1\n      pop\n      jump(tag_61)\n        /* \"romantointeger.sol\":266:292  if (char == 'L') return 50 */\n    tag_65:\n        /* \"romantointeger.sol\":306:317  char == 'C' */\n      0x4300000000000000000000000000000000000000000000000000000000000000\n        /* \"romantointeger.sol\":306:310  char */\n      dup3\n        /* \"romantointeger.sol\":306:317  char == 'C' */\n      not(0xffffffffffffffffffffffffffffffffffffffffffffffffffffffffffffff)\n      and\n      sub\n        /* \"romantointeger.sol\":302:329  if (char == 'C') return 100 */\n      tag_66\n      jumpi\n        /* \"romantointeger.sol\":326:329  100 */\n      0x64\n        /* \"romantointeger.sol\":319:329  return 100 */\n      swap1\n      pop\n      jump(tag_61)\n        /* \"romantointeger.sol\":302:329  if (char == 'C') return 100 */\n    tag_66:\n        /* \"romantointeger.sol\":343:354  char == 'D' */\n      0x4400000000000000000000000000000000000000000000000000000000000000\n        /* \"romantointeger.sol\":343:347  char */\n      dup3\n        /* \"romantointeger.sol\":343:354  char == 'D' */\n      not(0xffffffffffffffffffffffffffffffffffffffffffffffffffffffffffffff)\n      and\n      sub\n        /* \"romantointeger.sol\":339:366  if (char == 'D') return 500 */\n      tag_67\n      jumpi\n        /* \"romantointeger.sol\":363:366  500 */\n      0x01f4\n        /* \"romantointeger.sol\":356:366  return 500 */\n      swap1\n      pop\n      jump(tag_61)\n        /* \"romantointeger.sol\":339:366  if (char == 'D') return 500 */\n    tag_67:\n        /* \"romantointeger.sol\":380:391  char == 'M' */\n      0x4d00000000000000000000000000000000000000000000000000000000000000\n        /* \"romantointeger.sol\":380:384  char */\n      dup3\n        /* \"romantointeger.sol\":380:391  char == 'M' */\n      not(0xffffffffffffffffffffffffffffffffffffffffffffffffffffffffffffff)\n      and\n      sub\n        /* \"romantointeger.sol\":376:404  if (char == 'M') return 1000 */\n      tag_68\n      jumpi\n        /* \"romantointeger.sol\":400:404  1000 */\n      0x03e8\n        /* \"romantointeger.sol\":393:404  return 1000 */\n      swap1\n      pop\n      jump(tag_61)\n        /* \"romantointeger.sol\":376:404  if (char == 'M') return 1000 */\n    tag_68:\n        /* \"romantointeger.sol\":414:447  revert(\"Invalid roman character\") */\n      mload(0x40)\n      0x08c379a000000000000000000000000000000000000000000000000000000000\n      dup2\n      mstore\n      0x04\n      add\n      tag_69\n      swap1\n      tag_70\n      jump\t// in\n    tag_69:\n      mload(0x40)\n      dup1\n      swap2\n      sub\n      swap1\n      revert\n        /* \"romantointeger.sol\":88:454  function getValue(bytes1 char) private pure returns (uint256) {... */\n    tag_61:\n      swap2\n      swap1\n      pop\n      jump\t// out\n        /* \"#utility.yul\":7:82   */\n    tag_71:\n        /* \"#utility.yul\":40:46   */\n      0x00\n        /* \"#utility.yul\":73:75   */\n      0x40\n        /* \"#utility.yul\":67:76   */\n      mload\n        /* \"#utility.yul\":57:76   */\n      swap1\n      pop\n        /* \"#utility.yul\":7:82   */\n      swap1\n      jump\t// out\n        /* \"#utility.yul\":88:205   */\n    tag_72:\n        /* \"#utility.yul\":197:198   */\n      0x00\n        /* \"#utility.yul\":194:195   */\n      dup1\n        /* \"#utility.yul\":187:199   */\n      revert\n        /* \"#utility.yul\":211:328   */\n    tag_73:\n        /* \"#utility.yul\":320:321   */\n      0x00\n        /* \"#utility.yul\":317:318   */\n      dup1\n        /* \"#utility.yul\":310:322   */\n      revert\n        /* \"#utility.yul\":334:411   */\n    tag_74:\n        /* \"#utility.yul\":371:378   */\n      0x00\n        /* \"#utility.yul\":400:405   */\n      dup2\n        /* \"#utility.yul\":389:405   */\n      swap1\n      pop\n        /* \"#utility.yul\":334:411   */\n      swap2\n      swap1\n      pop\n      jump\t// out\n        /* \"#utility.yul\":417:539   */\n    tag_75:\n        /* \"#utility.yul\":490:514   */\n      tag_106\n        /* \"#utility.yul\":508:513   */\n      dup2\n        /* \"#utility.yul\":490:514   */\n      tag_74\n      jump\t// in\n    tag_106:\n        /* \"#utility.yul\":483:488   */\n      dup2\n        /* \"#utility.yul\":480:515   */\n      eq\n        /* \"#utility.yul\":470:533   */\n      tag_107\n      jumpi\n        /* \"#utility.yul\":529:530   */\n      0x00\n        /* \"#utility.yul\":526:527   */\n      dup1\n        /* \"#utility.yul\":519:531   */\n      revert\n        /* \"#utility.yul\":470:533   */\n    tag_107:\n        /* \"#utility.yul\":417:539   */\n      pop\n      jump\t// out\n        /* \"#utility.yul\":545:684   */\n    tag_76:\n        /* \"#utility.yul\":591:596   */\n      0x00\n        /* \"#utility.yul\":629:635   */\n      dup2\n        /* \"#utility.yul\":616:636   */\n      calldataload\n        /* \"#utility.yul\":607:636   */\n      swap1\n      pop\n        /* \"#utility.yul\":645:678   */\n      tag_109\n        /* \"#utility.yul\":672:677   */\n      dup2\n        /* \"#utility.yul\":645:678   */\n      tag_75\n      jump\t// in\n    tag_109:\n        /* \"#utility.yul\":545:684   */\n      swap3\n      swap2\n      pop\n      pop\n      jump\t// out\n        /* \"#utility.yul\":690:1019   */\n    tag_7:\n        /* \"#utility.yul\":749:755   */\n      0x00\n        /* \"#utility.yul\":798:800   */\n      0x20\n        /* \"#utility.yul\":786:795   */\n      dup3\n        /* \"#utility.yul\":777:784   */\n      dup5\n        /* \"#utility.yul\":773:796   */\n      sub\n        /* \"#utility.yul\":769:801   */\n      slt\n        /* \"#utility.yul\":766:885   */\n      iszero\n      tag_111\n      jumpi\n        /* \"#utility.yul\":804:883   */\n      tag_112\n      tag_72\n      jump\t// in\n    tag_112:\n        /* \"#utility.yul\":766:885   */\n    tag_111:\n        /* \"#utility.yul\":924:925   */\n      0x00\n        /* \"#utility.yul\":949:1002   */\n      tag_113\n        /* \"#utility.yul\":994:1001   */\n      dup5\n        /* \"#utility.yul\":985:991   */\n      dup3\n        /* \"#utility.yul\":974:983   */\n      dup6\n        /* \"#utility.yul\":970:992   */\n      add\n        /* \"#utility.yul\":949:1002   */\n      tag_76\n      jump\t// in\n    tag_113:\n        /* \"#utility.yul\":939:1002   */\n      swap2\n      pop\n        /* \"#utility.yul\":895:1012   */\n      pop\n        /* \"#utility.yul\":690:1019   */\n      swap3\n      swap2\n      pop\n      pop\n      jump\t// out\n        /* \"#utility.yul\":1025:1124   */\n    tag_77:\n        /* \"#utility.yul\":1077:1083   */\n      0x00\n        /* \"#utility.yul\":1111:1116   */\n      dup2\n        /* \"#utility.yul\":1105:1117   */\n      mload\n        /* \"#utility.yul\":1095:1117   */\n      swap1\n      pop\n        /* \"#utility.yul\":1025:1124   */\n      swap2\n      swap1\n      pop\n      jump\t// out\n        /* \"#utility.yul\":1130:1299   */\n    tag_78:\n        /* \"#utility.yul\":1214:1225   */\n      0x00\n        /* \"#utility.yul\":1248:1254   */\n      dup3\n        /* \"#utility.yul\":1243:1246   */\n      dup3\n        /* \"#utility.yul\":1236:1255   */\n      mstore\n        /* \"#utility.yul\":1288:1292   */\n      0x20\n        /* \"#utility.yul\":1283:1286   */\n      dup3\n        /* \"#utility.yul\":1279:1293   */\n      add\n        /* \"#utility.yul\":1264:1293   */\n      swap1\n      pop\n        /* \"#utility.yul\":1130:1299   */\n      swap3\n      swap2\n      pop\n      pop\n      jump\t// out\n        /* \"#utility.yul\":1305:1444   */\n    tag_79:\n        /* \"#utility.yul\":1394:1400   */\n      dup3\n        /* \"#utility.yul\":1389:1392   */\n      dup2\n        /* \"#utility.yul\":1384:1387   */\n      dup4\n        /* \"#utility.yul\":1378:1401   */\n      mcopy\n        /* \"#utility.yul\":1435:1436   */\n      0x00\n        /* \"#utility.yul\":1426:1432   */\n      dup4\n        /* \"#utility.yul\":1421:1424   */\n      dup4\n        /* \"#utility.yul\":1417:1433   */\n      add\n        /* \"#utility.yul\":1410:1437   */\n      mstore\n        /* \"#utility.yul\":1305:1444   */\n      pop\n      pop\n      pop\n      jump\t// out\n        /* \"#utility.yul\":1450:1552   */\n    tag_80:\n        /* \"#utility.yul\":1491:1497   */\n      0x00\n        /* \"#utility.yul\":1542:1544   */\n      0x1f\n        /* \"#utility.yul\":1538:1545   */\n      not\n        /* \"#utility.yul\":1533:1535   */\n      0x1f\n        /* \"#utility.yul\":1526:1531   */\n      dup4\n        /* \"#utility.yul\":1522:1536   */\n      add\n        /* \"#utility.yul\":1518:1546   */\n      and\n        /* \"#utility.yul\":1508:1546   */\n      swap1\n      pop\n        /* \"#utility.yul\":1450:1552   */\n      swap2\n      swap1\n      pop\n      jump\t// out\n        /* \"#utility.yul\":1558:1935   */\n    tag_81:\n        /* \"#utility.yul\":1646:1649   */\n      0x00\n        /* \"#utility.yul\":1674:1713   */\n      tag_119\n        /* \"#utility.yul\":1707:1712   */\n      dup3\n        /* \"#utility.yul\":1674:1713   */\n      tag_77\n      jump\t// in\n    tag_119:\n        /* \"#utility.yul\":1729:1800   */\n      tag_120\n        /* \"#utility.yul\":1793:1799   */\n      dup2\n        /* \"#utility.yul\":1788:1791   */\n      dup6\n        /* \"#utility.yul\":1729:1800   */\n      tag_78\n      jump\t// in\n    tag_120:\n        /* \"#utility.yul\":1722:1800   */\n      swap4\n      pop\n        /* \"#utility.yul\":1809:1874   */\n      tag_121\n        /* \"#utility.yul\":1867:1873   */\n      dup2\n        /* \"#utility.yul\":1862:1865   */\n      dup6\n        /* \"#utility.yul\":1855:1859   */\n      0x20\n        /* \"#utility.yul\":1848:1853   */\n      dup7\n        /* \"#utility.yul\":1844:1860   */\n      add\n        /* \"#utility.yul\":1809:1874   */\n      tag_79\n      jump\t// in\n    tag_121:\n        /* \"#utility.yul\":1899:1928   */\n      tag_122\n        /* \"#utility.yul\":1921:1927   */\n      dup2\n        /* \"#utility.yul\":1899:1928   */\n      tag_80\n      jump\t// in\n    tag_122:\n        /* \"#utility.yul\":1894:1897   */\n      dup5\n        /* \"#utility.yul\":1890:1929   */\n      add\n        /* \"#utility.yul\":1883:1929   */\n      swap2\n      pop\n        /* \"#utility.yul\":1650:1935   */\n      pop\n        /* \"#utility.yul\":1558:1935   */\n      swap3\n      swap2\n      pop\n      pop\n      jump\t// out\n        /* \"#utility.yul\":1941:2254   */\n    tag_10:\n        /* \"#utility.yul\":2054:2058   */\n      0x00\n        /* \"#utility.yul\":2092:2094   */\n      0x20\n        /* \"#utility.yul\":2081:2090   */\n      dup3\n        /* \"#utility.yul\":2077:2095   */\n      add\n        /* \"#utility.yul\":2069:2095   */\n      swap1\n      pop\n        /* \"#utility.yul\":2141:2150   */\n      dup2\n        /* \"#utility.yul\":2135:2139   */\n      dup2\n        /* \"#utility.yul\":2131:2151   */\n      sub\n        /* \"#utility.yul\":2127:2128   */\n      0x00\n        /* \"#utility.yul\":2116:2125   */\n      dup4\n        /* \"#utility.yul\":2112:2129   */\n      add\n        /* \"#utility.yul\":2105:2152   */\n      mstore\n        /* \"#utility.yul\":2169:2247   */\n      tag_124\n        /* \"#utility.yul\":2242:2246   */\n      dup2\n        /* \"#utility.yul\":2233:2239   */\n      dup5\n        /* \"#utility.yul\":2169:2247   */\n      tag_81\n      jump\t// in\n    tag_124:\n        /* \"#utility.yul\":2161:2247   */\n      swap1\n      pop\n        /* \"#utility.yul\":1941:2254   */\n      swap3\n      swap2\n      pop\n      pop\n      jump\t// out\n        /* \"#utility.yul\":2260:2377   */\n    tag_82:\n        /* \"#utility.yul\":2369:2370   */\n      0x00\n        /* \"#utility.yul\":2366:2367   */\n      dup1\n        /* \"#utility.yul\":2359:2371   */\n      revert\n        /* \"#utility.yul\":2383:2500   */\n    tag_83:\n        /* \"#utility.yul\":2492:2493   */\n      0x00\n        /* \"#utility.yul\":2489:2490   */\n      dup1\n        /* \"#utility.yul\":2482:2494   */\n      revert\n        /* \"#utility.yul\":2506:2686   */\n    tag_84:\n        /* \"#utility.yul\":2554:2631   */\n      0x4e487b7100000000000000000000000000000000000000000000000000000000\n        /* \"#utility.yul\":2551:2552   */\n      0x00\n        /* \"#utility.yul\":2544:2632   */\n      mstore\n        /* \"#utility.yul\":2651:2655   */\n      0x41\n        /* \"#utility.yul\":2648:2649   */\n      0x04\n        /* \"#utility.yul\":2641:2656   */\n      mstore\n        /* \"#utility.yul\":2675:2679   */\n      0x24\n        /* \"#utility.yul\":2672:2673   */\n      0x00\n        /* \"#utility.yul\":2665:2680   */\n      revert\n        /* \"#utility.yul\":2692:2973   */\n    tag_85:\n        /* \"#utility.yul\":2775:2802   */\n      tag_129\n        /* \"#utility.yul\":2797:2801   */\n      dup3\n        /* \"#utility.yul\":2775:2802   */\n      tag_80\n      jump\t// in\n    tag_129:\n        /* \"#utility.yul\":2767:2773   */\n      dup2\n        /* \"#utility.yul\":2763:2803   */\n      add\n        /* \"#utility.yul\":2905:2911   */\n      dup2\n        /* \"#utility.yul\":2893:2903   */\n      dup2\n        /* \"#utility.yul\":2890:2912   */\n      lt\n        /* \"#utility.yul\":2869:2887   */\n      0xffffffffffffffff\n        /* \"#utility.yul\":2857:2867   */\n      dup3\n        /* \"#utility.yul\":2854:2888   */\n      gt\n        /* \"#utility.yul\":2851:2913   */\n      or\n        /* \"#utility.yul\":2848:2936   */\n      iszero\n      tag_130\n      jumpi\n        /* \"#utility.yul\":2916:2934   */\n      tag_131\n      tag_84\n      jump\t// in\n    tag_131:\n        /* \"#utility.yul\":2848:2936   */\n    tag_130:\n        /* \"#utility.yul\":2956:2966   */\n      dup1\n        /* \"#utility.yul\":2952:2954   */\n      0x40\n        /* \"#utility.yul\":2945:2967   */\n      mstore\n        /* \"#utility.yul\":2735:2973   */\n      pop\n        /* \"#utility.yul\":2692:2973   */\n      pop\n      pop\n      jump\t// out\n        /* \"#utility.yul\":2979:3108   */\n    tag_86:\n        /* \"#utility.yul\":3013:3019   */\n      0x00\n        /* \"#utility.yul\":3040:3060   */\n      tag_133\n      tag_71\n      jump\t// in\n    tag_133:\n        /* \"#utility.yul\":3030:3060   */\n      swap1\n      pop\n        /* \"#utility.yul\":3069:3102   */\n      tag_134\n        /* \"#utility.yul\":3097:3101   */\n      dup3\n        /* \"#utility.yul\":3089:3095   */\n      dup3\n        /* \"#utility.yul\":3069:3102   */\n      tag_85\n      jump\t// in\n    tag_134:\n        /* \"#utility.yul\":2979:3108   */\n      swap2\n      swap1\n      pop\n      jump\t// out\n        /* \"#utility.yul\":3114:3422   */\n    tag_87:\n        /* \"#utility.yul\":3176:3180   */\n      0x00\n        /* \"#utility.yul\":3266:3284   */\n      0xffffffffffffffff\n        /* \"#utility.yul\":3258:3264   */\n      dup3\n        /* \"#utility.yul\":3255:3285   */\n      gt\n        /* \"#utility.yul\":3252:3308   */\n      iszero\n      tag_136\n      jumpi\n        /* \"#utility.yul\":3288:3306   */\n      tag_137\n      tag_84\n      jump\t// in\n    tag_137:\n        /* \"#utility.yul\":3252:3308   */\n    tag_136:\n        /* \"#utility.yul\":3326:3355   */\n      tag_138\n        /* \"#utility.yul\":3348:3354   */\n      dup3\n        /* \"#utility.yul\":3326:3355   */\n      tag_80\n      jump\t// in\n    tag_138:\n        /* \"#utility.yul\":3318:3355   */\n      swap1\n      pop\n        /* \"#utility.yul\":3410:3414   */\n      0x20\n        /* \"#utility.yul\":3404:3408   */\n      dup2\n        /* \"#utility.yul\":3400:3415   */\n      add\n        /* \"#utility.yul\":3392:3415   */\n      swap1\n      pop\n        /* \"#utility.yul\":3114:3422   */\n      swap2\n      swap1\n      pop\n      jump\t// out\n        /* \"#utility.yul\":3428:3576   */\n    tag_88:\n        /* \"#utility.yul\":3526:3532   */\n      dup3\n        /* \"#utility.yul\":3521:3524   */\n      dup2\n        /* \"#utility.yul\":3516:3519   */\n      dup4\n        /* \"#utility.yul\":3503:3533   */\n      calldatacopy\n        /* \"#utility.yul\":3567:3568   */\n      0x00\n        /* \"#utility.yul\":3558:3564   */\n      dup4\n        /* \"#utility.yul\":3553:3556   */\n      dup4\n        /* \"#utility.yul\":3549:3565   */\n      add\n        /* \"#utility.yul\":3542:3569   */\n      mstore\n        /* \"#utility.yul\":3428:3576   */\n      pop\n      pop\n      pop\n      jump\t// out\n        /* \"#utility.yul\":3582:4007   */\n    tag_89:\n        /* \"#utility.yul\":3660:3665   */\n      0x00\n        /* \"#utility.yul\":3685:3751   */\n      tag_141\n        /* \"#utility.yul\":3701:3750   */\n      tag_142\n        /* \"#utility.yul\":3743:3749   */\n      dup5\n        /* \"#utility.yul\":3701:3750   */\n      tag_87\n      jump\t// in\n    tag_142:\n        /* \"#utility.yul\":3685:3751   */\n      tag_86\n      jump\t// in\n    tag_141:\n        /* \"#utility.yul\":3676:3751   */\n      swap1\n      pop\n        /* \"#utility.yul\":3774:3780   */\n      dup3\n        /* \"#utility.yul\":3767:3772   */\n      dup2\n        /* \"#utility.yul\":3760:3781   */\n      mstore\n        /* \"#utility.yul\":3812:3816   */\n      0x20\n        /* \"#utility.yul\":3805:3810   */\n      dup2\n        /* \"#utility.yul\":3801:3817   */\n      add\n        /* \"#utility.yul\":3850:3853   */\n      dup5\n        /* \"#utility.yul\":3841:3847   */\n      dup5\n        /* \"#utility.yul\":3836:3839   */\n      dup5\n        /* \"#utility.yul\":3832:3848   */\n      add\n        /* \"#utility.yul\":3829:3854   */\n      gt\n        /* \"#utility.yul\":3826:3938   */\n      iszero\n      tag_143\n      jumpi\n        /* \"#utility.yul\":3857:3936   */\n      tag_144\n      tag_83\n      jump\t// in\n    tag_144:\n        /* \"#utility.yul\":3826:3938   */\n    tag_143:\n        /* \"#utility.yul\":3947:4001   */\n      tag_145\n        /* \"#utility.yul\":3994:4000   */\n      dup5\n        /* \"#utility.yul\":3989:3992   */\n      dup3\n        /* \"#utility.yul\":3984:3987   */\n      dup6\n        /* \"#utility.yul\":3947:4001   */\n      tag_88\n      jump\t// in\n    tag_145:\n        /* \"#utility.yul\":3666:4007   */\n      pop\n        /* \"#utility.yul\":3582:4007   */\n      swap4\n      swap3\n      pop\n      pop\n      pop\n      jump\t// out\n        /* \"#utility.yul\":4027:4367   */\n    tag_90:\n        /* \"#utility.yul\":4083:4088   */\n      0x00\n        /* \"#utility.yul\":4132:4135   */\n      dup3\n        /* \"#utility.yul\":4125:4129   */\n      0x1f\n        /* \"#utility.yul\":4117:4123   */\n      dup4\n        /* \"#utility.yul\":4113:4130   */\n      add\n        /* \"#utility.yul\":4109:4136   */\n      slt\n        /* \"#utility.yul\":4099:4221   */\n      tag_147\n      jumpi\n        /* \"#utility.yul\":4140:4219   */\n      tag_148\n      tag_82\n      jump\t// in\n    tag_148:\n        /* \"#utility.yul\":4099:4221   */\n    tag_147:\n        /* \"#utility.yul\":4257:4263   */\n      dup2\n        /* \"#utility.yul\":4244:4264   */\n      calldataload\n        /* \"#utility.yul\":4282:4361   */\n      tag_149\n        /* \"#utility.yul\":4357:4360   */\n      dup5\n        /* \"#utility.yul\":4349:4355   */\n      dup3\n        /* \"#utility.yul\":4342:4346   */\n      0x20\n        /* \"#utility.yul\":4334:4340   */\n      dup7\n        /* \"#utility.yul\":4330:4347   */\n      add\n        /* \"#utility.yul\":4282:4361   */\n      tag_89\n      jump\t// in\n    tag_149:\n        /* \"#utility.yul\":4273:4361   */\n      swap2\n      pop\n        /* \"#utility.yul\":4089:4367   */\n      pop\n        /* \"#utility.yul\":4027:4367   */\n      swap3\n      swap2\n      pop\n      pop\n      jump\t// out\n        /* \"#utility.yul\":4373:4882   */\n    tag_13:\n        /* \"#utility.yul\":4442:4448   */\n      0x00\n        /* \"#utility.yul\":4491:4493   */\n      0x20\n        /* \"#utility.yul\":4479:4488   */\n      dup3\n        /* \"#utility.yul\":4470:4477   */\n      dup5\n        /* \"#utility.yul\":4466:4489   */\n      sub\n        /* \"#utility.yul\":4462:4494   */\n      slt\n        /* \"#utility.yul\":4459:4578   */\n      iszero\n      tag_151\n      jumpi\n        /* \"#utility.yul\":4497:4576   */\n      tag_152\n      tag_72\n      jump\t// in\n    tag_152:\n        /* \"#utility.yul\":4459:4578   */\n    tag_151:\n        /* \"#utility.yul\":4645:4646   */\n      0x00\n        /* \"#utility.yul\":4634:4643   */\n      dup3\n        /* \"#utility.yul\":4630:4647   */\n      add\n        /* \"#utility.yul\":4617:4648   */\n      calldataload\n        /* \"#utility.yul\":4675:4693   */\n      0xffffffffffffffff\n        /* \"#utility.yul\":4667:4673   */\n      dup2\n        /* \"#utility.yul\":4664:4694   */\n      gt\n        /* \"#utility.yul\":4661:4778   */\n      iszero\n      tag_153\n      jumpi\n        /* \"#utility.yul\":4697:4776   */\n      tag_154\n      tag_73\n      jump\t// in\n    tag_154:\n        /* \"#utility.yul\":4661:4778   */\n    tag_153:\n        /* \"#utility.yul\":4802:4865   */\n      tag_155\n        /* \"#utility.yul\":4857:4864   */\n      dup5\n        /* \"#utility.yul\":4848:4854   */\n      dup3\n        /* \"#utility.yul\":4837:4846   */\n      dup6\n        /* \"#utility.yul\":4833:4855   */\n      add\n        /* \"#utility.yul\":4802:4865   */\n      tag_90\n      jump\t// in\n    tag_155:\n        /* \"#utility.yul\":4792:4865   */\n      swap2\n      pop\n        /* \"#utility.yul\":4588:4875   */\n      pop\n        /* \"#utility.yul\":4373:4882   */\n      swap3\n      swap2\n      pop\n      pop\n      jump\t// out\n        /* \"#utility.yul\":4888:5006   */\n    tag_91:\n        /* \"#utility.yul\":4975:4999   */\n      tag_157\n        /* \"#utility.yul\":4993:4998   */\n      dup2\n        /* \"#utility.yul\":4975:4999   */\n      tag_74\n      jump\t// in\n    tag_157:\n        /* \"#utility.yul\":4970:4973   */\n      dup3\n        /* \"#utility.yul\":4963:5000   */\n      mstore\n        /* \"#utility.yul\":4888:5006   */\n      pop\n      pop\n      jump\t// out\n        /* \"#utility.yul\":5012:5234   */\n    tag_16:\n        /* \"#utility.yul\":5105:5109   */\n      0x00\n        /* \"#utility.yul\":5143:5145   */\n      0x20\n        /* \"#utility.yul\":5132:5141   */\n      dup3\n        /* \"#utility.yul\":5128:5146   */\n      add\n        /* \"#utility.yul\":5120:5146   */\n      swap1\n      pop\n        /* \"#utility.yul\":5156:5227   */\n      tag_159\n        /* \"#utility.yul\":5224:5225   */\n      0x00\n        /* \"#utility.yul\":5213:5222   */\n      dup4\n        /* \"#utility.yul\":5209:5226   */\n      add\n        /* \"#utility.yul\":5200:5206   */\n      dup5\n        /* \"#utility.yul\":5156:5227   */\n      tag_91\n      jump\t// in\n    tag_159:\n        /* \"#utility.yul\":5012:5234   */\n      swap3\n      swap2\n      pop\n      pop\n      jump\t// out\n        /* \"#utility.yul\":5240:5460   */\n    tag_92:\n        /* \"#utility.yul\":5380:5414   */\n      0x4e756d626572206d757374206265206265747765656e203120616e6420333939\n        /* \"#utility.yul\":5376:5377   */\n      0x00\n        /* \"#utility.yul\":5368:5374   */\n      dup3\n        /* \"#utility.yul\":5364:5378   */\n      add\n        /* \"#utility.yul\":5357:5415   */\n      mstore\n        /* \"#utility.yul\":5449:5452   */\n      0x3900000000000000000000000000000000000000000000000000000000000000\n        /* \"#utility.yul\":5444:5446   */\n      0x20\n        /* \"#utility.yul\":5436:5442   */\n      dup3\n        /* \"#utility.yul\":5432:5447   */\n      add\n        /* \"#utility.yul\":5425:5453   */\n      mstore\n        /* \"#utility.yul\":5240:5460   */\n      pop\n      jump\t// out\n        /* \"#utility.yul\":5466:5832   */\n    tag_93:\n        /* \"#utility.yul\":5608:5611   */\n      0x00\n        /* \"#utility.yul\":5629:5696   */\n      tag_162\n        /* \"#utility.yul\":5693:5695   */\n      0x21\n        /* \"#utility.yul\":5688:5691   */\n      dup4\n        /* \"#utility.yul\":5629:5696   */\n      tag_78\n      jump\t// in\n    tag_162:\n        /* \"#utility.yul\":5622:5696   */\n      swap2\n      pop\n        /* \"#utility.yul\":5705:5798   */\n      tag_163\n        /* \"#utility.yul\":5794:5797   */\n      dup3\n        /* \"#utility.yul\":5705:5798   */\n      tag_92\n      jump\t// in\n    tag_163:\n        /* \"#utility.yul\":5823:5825   */\n      0x40\n        /* \"#utility.yul\":5818:5821   */\n      dup3\n        /* \"#utility.yul\":5814:5826   */\n      add\n        /* \"#utility.yul\":5807:5826   */\n      swap1\n      pop\n        /* \"#utility.yul\":5466:5832   */\n      swap2\n      swap1\n      pop\n      jump\t// out\n        /* \"#utility.yul\":5838:6257   */\n    tag_21:\n        /* \"#utility.yul\":6004:6008   */\n      0x00\n        /* \"#utility.yul\":6042:6044   */\n      0x20\n        /* \"#utility.yul\":6031:6040   */\n      dup3\n        /* \"#utility.yul\":6027:6045   */\n      add\n        /* \"#utility.yul\":6019:6045   */\n      swap1\n      pop\n        /* \"#utility.yul\":6091:6100   */\n      dup2\n        /* \"#utility.yul\":6085:6089   */\n      dup2\n        /* \"#utility.yul\":6081:6101   */\n      sub\n        /* \"#utility.yul\":6077:6078   */\n      0x00\n        /* \"#utility.yul\":6066:6075   */\n      dup4\n        /* \"#utility.yul\":6062:6079   */\n      add\n        /* \"#utility.yul\":6055:6102   */\n      mstore\n        /* \"#utility.yul\":6119:6250   */\n      tag_165\n        /* \"#utility.yul\":6245:6249   */\n      dup2\n        /* \"#utility.yul\":6119:6250   */\n      tag_93\n      jump\t// in\n    tag_165:\n        /* \"#utility.yul\":6111:6250   */\n      swap1\n      pop\n        /* \"#utility.yul\":5838:6257   */\n      swap2\n      swap1\n      pop\n      jump\t// out\n        /* \"#utility.yul\":6263:6443   */\n    tag_29:\n        /* \"#utility.yul\":6311:6388   */\n      0x4e487b7100000000000000000000000000000000000000000000000000000000\n        /* \"#utility.yul\":6308:6309   */\n      0x00\n        /* \"#utility.yul\":6301:6389   */\n      mstore\n        /* \"#utility.yul\":6408:6412   */\n      0x32\n        /* \"#utility.yul\":6405:6406   */\n      0x04\n        /* \"#utility.yul\":6398:6413   */\n      mstore\n        /* \"#utility.yul\":6432:6436   */\n      0x24\n        /* \"#utility.yul\":6429:6430   */\n      0x00\n        /* \"#utility.yul\":6422:6437   */\n      revert\n        /* \"#utility.yul\":6449:6597   */\n    tag_94:\n        /* \"#utility.yul\":6551:6562   */\n      0x00\n        /* \"#utility.yul\":6588:6591   */\n      dup2\n        /* \"#utility.yul\":6573:6591   */\n      swap1\n      pop\n        /* \"#utility.yul\":6449:6597   */\n      swap3\n      swap2\n      pop\n      pop\n      jump\t// out\n        /* \"#utility.yul\":6603:6993   */\n    tag_95:\n        /* \"#utility.yul\":6709:6712   */\n      0x00\n        /* \"#utility.yul\":6737:6776   */\n      tag_169\n        /* \"#utility.yul\":6770:6775   */\n      dup3\n        /* \"#utility.yul\":6737:6776   */\n      tag_77\n      jump\t// in\n    tag_169:\n        /* \"#utility.yul\":6792:6881   */\n      tag_170\n        /* \"#utility.yul\":6874:6880   */\n      dup2\n        /* \"#utility.yul\":6869:6872   */\n      dup6\n        /* \"#utility.yul\":6792:6881   */\n      tag_94\n      jump\t// in\n    tag_170:\n        /* \"#utility.yul\":6785:6881   */\n      swap4\n      pop\n        /* \"#utility.yul\":6890:6955   */\n      tag_171\n        /* \"#utility.yul\":6948:6954   */\n      dup2\n        /* \"#utility.yul\":6943:6946   */\n      dup6\n        /* \"#utility.yul\":6936:6940   */\n      0x20\n        /* \"#utility.yul\":6929:6934   */\n      dup7\n        /* \"#utility.yul\":6925:6941   */\n      add\n        /* \"#utility.yul\":6890:6955   */\n      tag_79\n      jump\t// in\n    tag_171:\n        /* \"#utility.yul\":6980:6986   */\n      dup1\n        /* \"#utility.yul\":6975:6978   */\n      dup5\n        /* \"#utility.yul\":6971:6987   */\n      add\n        /* \"#utility.yul\":6964:6987   */\n      swap2\n      pop\n        /* \"#utility.yul\":6713:6993   */\n      pop\n        /* \"#utility.yul\":6603:6993   */\n      swap3\n      swap2\n      pop\n      pop\n      jump\t// out\n        /* \"#utility.yul\":6999:7434   */\n    tag_33:\n        /* \"#utility.yul\":7179:7182   */\n      0x00\n        /* \"#utility.yul\":7201:7296   */\n      tag_173\n        /* \"#utility.yul\":7292:7295   */\n      dup3\n        /* \"#utility.yul\":7283:7289   */\n      dup6\n        /* \"#utility.yul\":7201:7296   */\n      tag_95\n      jump\t// in\n    tag_173:\n        /* \"#utility.yul\":7194:7296   */\n      swap2\n      pop\n        /* \"#utility.yul\":7313:7408   */\n      tag_174\n        /* \"#utility.yul\":7404:7407   */\n      dup3\n        /* \"#utility.yul\":7395:7401   */\n      dup5\n        /* \"#utility.yul\":7313:7408   */\n      tag_95\n      jump\t// in\n    tag_174:\n        /* \"#utility.yul\":7306:7408   */\n      swap2\n      pop\n        /* \"#utility.yul\":7425:7428   */\n      dup2\n        /* \"#utility.yul\":7418:7428   */\n      swap1\n      pop\n        /* \"#utility.yul\":6999:7434   */\n      swap4\n      swap3\n      pop\n      pop\n      pop\n      jump\t// out\n        /* \"#utility.yul\":7440:7620   */\n    tag_96:\n        /* \"#utility.yul\":7488:7565   */\n      0x4e487b7100000000000000000000000000000000000000000000000000000000\n        /* \"#utility.yul\":7485:7486   */\n      0x00\n        /* \"#utility.yul\":7478:7566   */\n      mstore\n        /* \"#utility.yul\":7585:7589   */\n      0x11\n        /* \"#utility.yul\":7582:7583   */\n      0x04\n        /* \"#utility.yul\":7575:7590   */\n      mstore\n        /* \"#utility.yul\":7609:7613   */\n      0x24\n        /* \"#utility.yul\":7606:7607   */\n      0x00\n        /* \"#utility.yul\":7599:7614   */\n      revert\n        /* \"#utility.yul\":7626:7820   */\n    tag_37:\n        /* \"#utility.yul\":7666:7670   */\n      0x00\n        /* \"#utility.yul\":7686:7706   */\n      tag_177\n        /* \"#utility.yul\":7704:7705   */\n      dup3\n        /* \"#utility.yul\":7686:7706   */\n      tag_74\n      jump\t// in\n    tag_177:\n        /* \"#utility.yul\":7681:7706   */\n      swap2\n      pop\n        /* \"#utility.yul\":7720:7740   */\n      tag_178\n        /* \"#utility.yul\":7738:7739   */\n      dup4\n        /* \"#utility.yul\":7720:7740   */\n      tag_74\n      jump\t// in\n    tag_178:\n        /* \"#utility.yul\":7715:7740   */\n      swap3\n      pop\n        /* \"#utility.yul\":7764:7765   */\n      dup3\n        /* \"#utility.yul\":7761:7762   */\n      dup3\n        /* \"#utility.yul\":7757:7766   */\n      sub\n        /* \"#utility.yul\":7749:7766   */\n      swap1\n      pop\n        /* \"#utility.yul\":7788:7789   */\n      dup2\n        /* \"#utility.yul\":7782:7786   */\n      dup2\n        /* \"#utility.yul\":7779:7790   */\n      gt\n        /* \"#utility.yul\":7776:7813   */\n      iszero\n      tag_179\n      jumpi\n        /* \"#utility.yul\":7793:7811   */\n      tag_180\n      tag_96\n      jump\t// in\n    tag_180:\n        /* \"#utility.yul\":7776:7813   */\n    tag_179:\n        /* \"#utility.yul\":7626:7820   */\n      swap3\n      swap2\n      pop\n      pop\n      jump\t// out\n        /* \"#utility.yul\":7826:8017   */\n    tag_50:\n        /* \"#utility.yul\":7866:7869   */\n      0x00\n        /* \"#utility.yul\":7885:7905   */\n      tag_182\n        /* \"#utility.yul\":7903:7904   */\n      dup3\n        /* \"#utility.yul\":7885:7905   */\n      tag_74\n      jump\t// in\n    tag_182:\n        /* \"#utility.yul\":7880:7905   */\n      swap2\n      pop\n        /* \"#utility.yul\":7919:7939   */\n      tag_183\n        /* \"#utility.yul\":7937:7938   */\n      dup4\n        /* \"#utility.yul\":7919:7939   */\n      tag_74\n      jump\t// in\n    tag_183:\n        /* \"#utility.yul\":7914:7939   */\n      swap3\n      pop\n        /* \"#utility.yul\":7962:7963   */\n      dup3\n        /* \"#utility.yul\":7959:7960   */\n      dup3\n        /* \"#utility.yul\":7955:7964   */\n      add\n        /* \"#utility.yul\":7948:7964   */\n      swap1\n      pop\n        /* \"#utility.yul\":7983:7986   */\n      dup1\n        /* \"#utility.yul\":7980:7981   */\n      dup3\n        /* \"#utility.yul\":7977:7987   */\n      gt\n        /* \"#utility.yul\":7974:8010   */\n      iszero\n      tag_184\n      jumpi\n        /* \"#utility.yul\":7990:8008   */\n      tag_185\n      tag_96\n      jump\t// in\n    tag_185:\n        /* \"#utility.yul\":7974:8010   */\n    tag_184:\n        /* \"#utility.yul\":7826:8017   */\n      swap3\n      swap2\n      pop\n      pop\n      jump\t// out\n        /* \"#utility.yul\":8023:8099   */\n    tag_97:\n        /* \"#utility.yul\":8059:8066   */\n      0x00\n        /* \"#utility.yul\":8088:8093   */\n      dup2\n        /* \"#utility.yul\":8077:8093   */\n      swap1\n      pop\n        /* \"#utility.yul\":8023:8099   */\n      swap2\n      swap1\n      pop\n      jump\t// out\n        /* \"#utility.yul\":8105:8477   */\n    tag_55:\n        /* \"#utility.yul\":8144:8148   */\n      0x00\n        /* \"#utility.yul\":8164:8183   */\n      tag_188\n        /* \"#utility.yul\":8181:8182   */\n      dup3\n        /* \"#utility.yul\":8164:8183   */\n      tag_97\n      jump\t// in\n    tag_188:\n        /* \"#utility.yul\":8159:8183   */\n      swap2\n      pop\n        /* \"#utility.yul\":8197:8216   */\n      tag_189\n        /* \"#utility.yul\":8214:8215   */\n      dup4\n        /* \"#utility.yul\":8197:8216   */\n      tag_97\n      jump\t// in\n    tag_189:\n        /* \"#utility.yul\":8192:8216   */\n      swap3\n      pop\n        /* \"#utility.yul\":8240:8241   */\n      dup3\n        /* \"#utility.yul\":8237:8238   */\n      dup3\n        /* \"#utility.yul\":8233:8242   */\n      sub\n        /* \"#utility.yul\":8225:8242   */\n      swap1\n      pop\n        /* \"#utility.yul\":8434:8435   */\n      dup2\n        /* \"#utility.yul\":8428:8432   */\n      dup2\n        /* \"#utility.yul\":8424:8436   */\n      slt\n        /* \"#utility.yul\":8420:8421   */\n      0x00\n        /* \"#utility.yul\":8417:8418   */\n      dup5\n        /* \"#utility.yul\":8413:8422   */\n      slt\n        /* \"#utility.yul\":8409:8437   */\n      and\n        /* \"#utility.yul\":8392:8393   */\n      dup3\n        /* \"#utility.yul\":8386:8390   */\n      dup3\n        /* \"#utility.yul\":8382:8394   */\n      sgt\n        /* \"#utility.yul\":8377:8378   */\n      0x00\n        /* \"#utility.yul\":8374:8375   */\n      dup6\n        /* \"#utility.yul\":8370:8379   */\n      slt\n        /* \"#utility.yul\":8363:8380   */\n      iszero\n        /* \"#utility.yul\":8359:8395   */\n      and\n        /* \"#utility.yul\":8343:8447   */\n      or\n        /* \"#utility.yul\":8340:8470   */\n      iszero\n      tag_190\n      jumpi\n        /* \"#utility.yul\":8450:8468   */\n      tag_191\n      tag_96\n      jump\t// in\n    tag_191:\n        /* \"#utility.yul\":8340:8470   */\n    tag_190:\n        /* \"#utility.yul\":8105:8477   */\n      swap3\n      swap2\n      pop\n      pop\n      jump\t// out\n        /* \"#utility.yul\":8483:8858   */\n    tag_58:\n        /* \"#utility.yul\":8522:8525   */\n      0x00\n        /* \"#utility.yul\":8541:8560   */\n      tag_193\n        /* \"#utility.yul\":8558:8559   */\n      dup3\n        /* \"#utility.yul\":8541:8560   */\n      tag_97\n      jump\t// in\n    tag_193:\n        /* \"#utility.yul\":8536:8560   */\n      swap2\n      pop\n        /* \"#utility.yul\":8574:8593   */\n      tag_194\n        /* \"#utility.yul\":8591:8592   */\n      dup4\n        /* \"#utility.yul\":8574:8593   */\n      tag_97\n      jump\t// in\n    tag_194:\n        /* \"#utility.yul\":8569:8593   */\n      swap3\n      pop\n        /* \"#utility.yul\":8616:8617   */\n      dup3\n        /* \"#utility.yul\":8613:8614   */\n      dup3\n        /* \"#utility.yul\":8609:8618   */\n      add\n        /* \"#utility.yul\":8602:8618   */\n      swap1\n      pop\n        /* \"#utility.yul\":8814:8815   */\n      dup3\n        /* \"#utility.yul\":8809:8812   */\n      dup2\n        /* \"#utility.yul\":8805:8816   */\n      slt\n        /* \"#utility.yul\":8798:8817   */\n      iszero\n        /* \"#utility.yul\":8794:8795   */\n      0x00\n        /* \"#utility.yul\":8791:8792   */\n      dup4\n        /* \"#utility.yul\":8787:8796   */\n      slt\n        /* \"#utility.yul\":8783:8818   */\n      and\n        /* \"#utility.yul\":8766:8767   */\n      dup4\n        /* \"#utility.yul\":8761:8764   */\n      dup3\n        /* \"#utility.yul\":8757:8768   */\n      slt\n        /* \"#utility.yul\":8752:8753   */\n      0x00\n        /* \"#utility.yul\":8749:8750   */\n      dup5\n        /* \"#utility.yul\":8745:8754   */\n      slt\n        /* \"#utility.yul\":8738:8755   */\n      iszero\n        /* \"#utility.yul\":8734:8769   */\n      and\n        /* \"#utility.yul\":8718:8828   */\n      or\n        /* \"#utility.yul\":8715:8851   */\n      iszero\n      tag_195\n      jumpi\n        /* \"#utility.yul\":8831:8849   */\n      tag_196\n      tag_96\n      jump\t// in\n    tag_196:\n        /* \"#utility.yul\":8715:8851   */\n    tag_195:\n        /* \"#utility.yul\":8483:8858   */\n      swap3\n      swap2\n      pop\n      pop\n      jump\t// out\n        /* \"#utility.yul\":8864:9037   */\n    tag_98:\n        /* \"#utility.yul\":9004:9029   */\n      0x496e76616c696420726f6d616e20636861726163746572000000000000000000\n        /* \"#utility.yul\":9000:9001   */\n      0x00\n        /* \"#utility.yul\":8992:8998   */\n      dup3\n        /* \"#utility.yul\":8988:9002   */\n      add\n        /* \"#utility.yul\":8981:9030   */\n      mstore\n        /* \"#utility.yul\":8864:9037   */\n      pop\n      jump\t// out\n        /* \"#utility.yul\":9043:9409   */\n    tag_99:\n        /* \"#utility.yul\":9185:9188   */\n      0x00\n        /* \"#utility.yul\":9206:9273   */\n      tag_199\n        /* \"#utility.yul\":9270:9272   */\n      0x17\n        /* \"#utility.yul\":9265:9268   */\n      dup4\n        /* \"#utility.yul\":9206:9273   */\n      tag_78\n      jump\t// in\n    tag_199:\n        /* \"#utility.yul\":9199:9273   */\n      swap2\n      pop\n        /* \"#utility.yul\":9282:9375   */\n      tag_200\n        /* \"#utility.yul\":9371:9374   */\n      dup3\n        /* \"#utility.yul\":9282:9375   */\n      tag_98\n      jump\t// in\n    tag_200:\n        /* \"#utility.yul\":9400:9402   */\n      0x20\n        /* \"#utility.yul\":9395:9398   */\n      dup3\n        /* \"#utility.yul\":9391:9403   */\n      add\n        /* \"#utility.yul\":9384:9403   */\n      swap1\n      pop\n        /* \"#utility.yul\":9043:9409   */\n      swap2\n      swap1\n      pop\n      jump\t// out\n        /* \"#utility.yul\":9415:9834   */\n    tag_70:\n        /* \"#utility.yul\":9581:9585   */\n      0x00\n        /* \"#utility.yul\":9619:9621   */\n      0x20\n        /* \"#utility.yul\":9608:9617   */\n      dup3\n        /* \"#utility.yul\":9604:9622   */\n      add\n        /* \"#utility.yul\":9596:9622   */\n      swap1\n      pop\n        /* \"#utility.yul\":9668:9677   */\n      dup2\n        /* \"#utility.yul\":9662:9666   */\n      dup2\n        /* \"#utility.yul\":9658:9678   */\n      sub\n        /* \"#utility.yul\":9654:9655   */\n      0x00\n        /* \"#utility.yul\":9643:9652   */\n      dup4\n        /* \"#utility.yul\":9639:9656   */\n      add\n        /* \"#utility.yul\":9632:9679   */\n      mstore\n        /* \"#utility.yul\":9696:9827   */\n      tag_202\n        /* \"#utility.yul\":9822:9826   */\n      dup2\n        /* \"#utility.yul\":9696:9827   */\n      tag_99\n      jump\t// in\n    tag_202:\n        /* \"#utility.yul\":9688:9827   */\n      swap1\n      pop\n        /* \"#utility.yul\":9415:9834   */\n      swap2\n      swap1\n      pop\n      jump\t// out\n\n    auxdata: 0xa2646970667358221220a90bf9f34e910c958d4e682b916de5125a59e16fc0db2926275561d47634efd364736f6c634300081a0033\n}\n",
				"bytecode": {
					"linkReferences": {},
					"object": "6080604052348015600e575f80fd5b50610dec8061001c5f395ff3fe608060405234801561000f575f80fd5b5060043610610034575f3560e01c80630cbc513a14610038578063cb159dfe14610068575b5f80fd5b610052600480360381019061004d91906108c3565b610098565b60405161005f919061095e565b60405180910390f35b610082600480360381019061007d9190610aaa565b61051e565b60405161008f9190610b00565b60405180910390f35b6060600182101580156100ad5750610f9f8211155b6100ec576040517f08c379a00000000000000000000000000000000000000000000000000000000081526004016100e390610b89565b60405180910390fd5b5f604051806101a001604052806103e8815260200161038481526020016101f48152602001610190815260200160648152602001605a81526020016032815260200160288152602001600a8152602001600981526020016005815260200160048152602001600181525090505f604051806101a001604052806040518060400160405280600181526020017f4d0000000000000000000000000000000000000000000000000000000000000081525081526020016040518060400160405280600281526020017f434d00000000000000000000000000000000000000000000000000000000000081525081526020016040518060400160405280600181526020017f440000000000000000000000000000000000000000000000000000000000000081525081526020016040518060400160405280600281526020017f434400000000000000000000000000000000000000000000000000000000000081525081526020016040518060400160405280600181526020017f430000000000000000000000000000000000000000000000000000000000000081525081526020016040518060400160405280600281526020017f584300000000000000000000000000000000000000000000000000000000000081525081526020016040518060400160405280600181526020017f4c0000000000000000000000000000000000000000000000000000000000000081525081526020016040518060400160405280600281526020017f584c00000000000000000000000000000000000000000000000000000000000081525081526020016040518060400160405280600181526020017f580000000000000000000000000000000000000000000000000000000000000081525081526020016040518060400160405280600281526020017f495800000000000000000000000000000000000000000000000000000000000081525081526020016040518060400160405280600181526020017f560000000000000000000000000000000000000000000000000000000000000081525081526020016040518060400160405280600281526020017f495600000000000000000000000000000000000000000000000000000000000081525081526020016040518060400160405280600181526020017f490000000000000000000000000000000000000000000000000000000000000081525081525090505f60405180602001604052805f81525090505f5b600d811015610512575b8381600d811061049557610494610ba7565b5b6020020151861061050557818382600d81106104b4576104b3610ba7565b5b60200201516040516020016104ca929190610c0e565b60405160208183030381529060405291508381600d81106104ee576104ed610ba7565b5b6020020151866104fe9190610c5e565b9550610482565b8080600101915050610478565b50809350505050919050565b5f808290505f80825190505f5b818110156105f2575f61055a85838151811061054a57610549610ba7565b5b602001015160f81c60f81b6105fe565b90506001836105699190610c5e565b8210156105d5575f6105a3866001856105829190610c91565b8151811061059357610592610ba7565b5b602001015160f81c60f81b6105fe565b9050808212156105c05781856105b99190610ccd565b94506105cf565b81856105cc9190610d0d565b94505b506105e4565b80846105e19190610d0d565b93505b50808060010191505061052b565b50819350505050919050565b5f7f4900000000000000000000000000000000000000000000000000000000000000827effffffffffffffffffffffffffffffffffffffffffffffffffffffffffffff191603610651576001905061087a565b7f5600000000000000000000000000000000000000000000000000000000000000827effffffffffffffffffffffffffffffffffffffffffffffffffffffffffffff1916036106a3576005905061087a565b7f5800000000000000000000000000000000000000000000000000000000000000827effffffffffffffffffffffffffffffffffffffffffffffffffffffffffffff1916036106f557600a905061087a565b7f4c00000000000000000000000000000000000000000000000000000000000000827effffffffffffffffffffffffffffffffffffffffffffffffffffffffffffff191603610747576032905061087a565b7f4300000000000000000000000000000000000000000000000000000000000000827effffffffffffffffffffffffffffffffffffffffffffffffffffffffffffff191603610799576064905061087a565b7f4400000000000000000000000000000000000000000000000000000000000000827effffffffffffffffffffffffffffffffffffffffffffffffffffffffffffff1916036107ec576101f4905061087a565b7f4d00000000000000000000000000000000000000000000000000000000000000827effffffffffffffffffffffffffffffffffffffffffffffffffffffffffffff19160361083f576103e8905061087a565b6040517f08c379a000000000000000000000000000000000000000000000000000000000815260040161087190610d98565b60405180910390fd5b919050565b5f604051905090565b5f80fd5b5f80fd5b5f819050919050565b6108a281610890565b81146108ac575f80fd5b50565b5f813590506108bd81610899565b92915050565b5f602082840312156108d8576108d7610888565b5b5f6108e5848285016108af565b91505092915050565b5f81519050919050565b5f82825260208201905092915050565b8281835e5f83830152505050565b5f601f19601f8301169050919050565b5f610930826108ee565b61093a81856108f8565b935061094a818560208601610908565b61095381610916565b840191505092915050565b5f6020820190508181035f8301526109768184610926565b905092915050565b5f80fd5b5f80fd5b7f4e487b71000000000000000000000000000000000000000000000000000000005f52604160045260245ffd5b6109bc82610916565b810181811067ffffffffffffffff821117156109db576109da610986565b5b80604052505050565b5f6109ed61087f565b90506109f982826109b3565b919050565b5f67ffffffffffffffff821115610a1857610a17610986565b5b610a2182610916565b9050602081019050919050565b828183375f83830152505050565b5f610a4e610a49846109fe565b6109e4565b905082815260208101848484011115610a6a57610a69610982565b5b610a75848285610a2e565b509392505050565b5f82601f830112610a9157610a9061097e565b5b8135610aa1848260208601610a3c565b91505092915050565b5f60208284031215610abf57610abe610888565b5b5f82013567ffffffffffffffff811115610adc57610adb61088c565b5b610ae884828501610a7d565b91505092915050565b610afa81610890565b82525050565b5f602082019050610b135f830184610af1565b92915050565b7f4e756d626572206d757374206265206265747765656e203120616e64203339395f8201527f3900000000000000000000000000000000000000000000000000000000000000602082015250565b5f610b736021836108f8565b9150610b7e82610b19565b604082019050919050565b5f6020820190508181035f830152610ba081610b67565b9050919050565b7f4e487b71000000000000000000000000000000000000000000000000000000005f52603260045260245ffd5b5f81905092915050565b5f610be8826108ee565b610bf28185610bd4565b9350610c02818560208601610908565b80840191505092915050565b5f610c198285610bde565b9150610c258284610bde565b91508190509392505050565b7f4e487b71000000000000000000000000000000000000000000000000000000005f52601160045260245ffd5b5f610c6882610890565b9150610c7383610890565b9250828203905081811115610c8b57610c8a610c31565b5b92915050565b5f610c9b82610890565b9150610ca683610890565b9250828201905080821115610cbe57610cbd610c31565b5b92915050565b5f819050919050565b5f610cd782610cc4565b9150610ce283610cc4565b925082820390508181125f8412168282135f851215161715610d0757610d06610c31565b5b92915050565b5f610d1782610cc4565b9150610d2283610cc4565b92508282019050828112155f8312168382125f841215161715610d4857610d47610c31565b5b92915050565b7f496e76616c696420726f6d616e206368617261637465720000000000000000005f82015250565b5f610d826017836108f8565b9150610d8d82610d4e565b602082019050919050565b5f6020820190508181035f830152610daf81610d76565b905091905056fea2646970667358221220a90bf9f34e910c958d4e682b916de5125a59e16fc0db2926275561d47634efd364736f6c634300081a0033",
					"opcodes": "PUSH1 0x80 PUSH1 0x40 MSTORE CALLVALUE DUP1 ISZERO PUSH1 0xE JUMPI PUSH0 DUP1 REVERT JUMPDEST POP PUSH2 0xDEC DUP1 PUSH2 0x1C PUSH0 CODECOPY PUSH0 RETURN INVALID PUSH1 0x80 PUSH1 0x40 MSTORE CALLVALUE DUP1 ISZERO PUSH2 0xF JUMPI PUSH0 DUP1 REVERT JUMPDEST POP PUSH1 0x4 CALLDATASIZE LT PUSH2 0x34 JUMPI PUSH0 CALLDATALOAD PUSH1 0xE0 SHR DUP1 PUSH4 0xCBC513A EQ PUSH2 0x38 JUMPI DUP1 PUSH4 0xCB159DFE EQ PUSH2 0x68 JUMPI JUMPDEST PUSH0 DUP1 REVERT JUMPDEST PUSH2 0x52 PUSH1 0x4 DUP1 CALLDATASIZE SUB DUP2 ADD SWAP1 PUSH2 0x4D SWAP2 SWAP1 PUSH2 0x8C3 JUMP JUMPDEST PUSH2 0x98 JUMP JUMPDEST PUSH1 0x40 MLOAD PUSH2 0x5F SWAP2 SWAP1 PUSH2 0x95E JUMP JUMPDEST PUSH1 0x40 MLOAD DUP1 SWAP2 SUB SWAP1 RETURN JUMPDEST PUSH2 0x82 PUSH1 0x4 DUP1 CALLDATASIZE SUB DUP2 ADD SWAP1 PUSH2 0x7D SWAP2 SWAP1 PUSH2 0xAAA JUMP JUMPDEST PUSH2 0x51E JUMP JUMPDEST PUSH1 0x40 MLOAD PUSH2 0x8F SWAP2 SWAP1 PUSH2 0xB00 JUMP JUMPDEST PUSH1 0x40 MLOAD DUP1 SWAP2 SUB SWAP1 RETURN JUMPDEST PUSH1 0x60 PUSH1 0x1 DUP3 LT ISZERO DUP1 ISZERO PUSH2 0xAD JUMPI POP PUSH2 0xF9F DUP3 GT ISZERO JUMPDEST PUSH2 0xEC JUMPI PUSH1 0x40 MLOAD PUSH32 0x8C379A000000000000000000000000000000000000000000000000000000000 DUP2 MSTORE PUSH1 0x4 ADD PUSH2 0xE3 SWAP1 PUSH2 0xB89 JUMP JUMPDEST PUSH1 0x40 MLOAD DUP1 SWAP2 SUB SWAP1 REVERT JUMPDEST PUSH0 PUSH1 0x40 MLOAD DUP1 PUSH2 0x1A0 ADD PUSH1 0x40 MSTORE DUP1 PUSH2 0x3E8 DUP2 MSTORE PUSH1 0x20 ADD PUSH2 0x384 DUP2 MSTORE PUSH1 0x20 ADD PUSH2 0x1F4 DUP2 MSTORE PUSH1 0x20 ADD PUSH2 0x190 DUP2 MSTORE PUSH1 0x20 ADD PUSH1 0x64 DUP2 MSTORE PUSH1 0x20 ADD PUSH1 0x5A DUP2 MSTORE PUSH1 0x20 ADD PUSH1 0x32 DUP2 MSTORE PUSH1 0x20 ADD PUSH1 0x28 DUP2 MSTORE PUSH1 0x20 ADD PUSH1 0xA DUP2 MSTORE PUSH1 0x20 ADD PUSH1 0x9 DUP2 MSTORE PUSH1 0x20 ADD PUSH1 0x5 DUP2 MSTORE PUSH1 0x20 ADD PUSH1 0x4 DUP2 MSTORE PUSH1 0x20 ADD PUSH1 0x1 DUP2 MSTORE POP SWAP1 POP PUSH0 PUSH1 0x40 MLOAD DUP1 PUSH2 0x1A0 ADD PUSH1 0x40 MSTORE DUP1 PUSH1 0x40 MLOAD DUP1 PUSH1 0x40 ADD PUSH1 0x40 MSTORE DUP1 PUSH1 0x1 DUP2 MSTORE PUSH1 0x20 ADD PUSH32 0x4D00000000000000000000000000000000000000000000000000000000000000 DUP2 MSTORE POP DUP2 MSTORE PUSH1 0x20 ADD PUSH1 0x40 MLOAD DUP1 PUSH1 0x40 ADD PUSH1 0x40 MSTORE DUP1 PUSH1 0x2 DUP2 MSTORE PUSH1 0x20 ADD PUSH32 0x434D000000000000000000000000000000000000000000000000000000000000 DUP2 MSTORE POP DUP2 MSTORE PUSH1 0x20 ADD PUSH1 0x40 MLOAD DUP1 PUSH1 0x40 ADD PUSH1 0x40 MSTORE DUP1 PUSH1 0x1 DUP2 MSTORE PUSH1 0x20 ADD PUSH32 0x4400000000000000000000000000000000000000000000000000000000000000 DUP2 MSTORE POP DUP2 MSTORE PUSH1 0x20 ADD PUSH1 0x40 MLOAD DUP1 PUSH1 0x40 ADD PUSH1 0x40 MSTORE DUP1 PUSH1 0x2 DUP2 MSTORE PUSH1 0x20 ADD PUSH32 0x4344000000000000000000000000000000000000000000000000000000000000 DUP2 MSTORE POP DUP2 MSTORE PUSH1 0x20 ADD PUSH1 0x40 MLOAD DUP1 PUSH1 0x40 ADD PUSH1 0x40 MSTORE DUP1 PUSH1 0x1 DUP2 MSTORE PUSH1 0x20 ADD PUSH32 0x4300000000000000000000000000000000000000000000000000000000000000 DUP2 MSTORE POP DUP2 MSTORE PUSH1 0x20 ADD PUSH1 0x40 MLOAD DUP1 PUSH1 0x40 ADD PUSH1 0x40 MSTORE DUP1 PUSH1 0x2 DUP2 MSTORE PUSH1 0x20 ADD PUSH32 0x5843000000000000000000000000000000000000000000000000000000000000 DUP2 MSTORE POP DUP2 MSTORE PUSH1 0x20 ADD PUSH1 0x40 MLOAD DUP1 PUSH1 0x40 ADD PUSH1 0x40 MSTORE DUP1 PUSH1 0x1 DUP2 MSTORE PUSH1 0x20 ADD PUSH32 0x4C00000000000000000000000000000000000000000000000000000000000000 DUP2 MSTORE POP DUP2 MSTORE PUSH1 0x20 ADD PUSH1 0x40 MLOAD DUP1 PUSH1 0x40 ADD PUSH1 0x40 MSTORE DUP1 PUSH1 0x2 DUP2 MSTORE PUSH1 0x20 ADD PUSH32 0x584C000000000000000000000000000000000000000000000000000000000000 DUP2 MSTORE POP DUP2 MSTORE PUSH1 0x20 ADD PUSH1 0x40 MLOAD DUP1 PUSH1 0x40 ADD PUSH1 0x40 MSTORE DUP1 PUSH1 0x1 DUP2 MSTORE PUSH1 0x20 ADD PUSH32 0x5800000000000000000000000000000000000000000000000000000000000000 DUP2 MSTORE POP DUP2 MSTORE PUSH1 0x20 ADD PUSH1 0x40 MLOAD DUP1 PUSH1 0x40 ADD PUSH1 0x40 MSTORE DUP1 PUSH1 0x2 DUP2 MSTORE PUSH1 0x20 ADD PUSH32 0x4958000000000000000000000000000000000000000000000000000000000000 DUP2 MSTORE POP DUP2 MSTORE PUSH1 0x20 ADD PUSH1 0x40 MLOAD DUP1 PUSH1 0x40 ADD PUSH1 0x40 MSTORE DUP1 PUSH1 0x1 DUP2 MSTORE PUSH1 0x20 ADD PUSH32 0x5600000000000000000000000000000000000000000000000000000000000000 DUP2 MSTORE POP DUP2 MSTORE PUSH1 0x20 ADD PUSH1 0x40 MLOAD DUP1 PUSH1 0x40 ADD PUSH1 0x40 MSTORE DUP1 PUSH1 0x2 DUP2 MSTORE PUSH1 0x20 ADD PUSH32 0x4956000000000000000000000000000000000000000000000000000000000000 DUP2 MSTORE POP DUP2 MSTORE PUSH1 0x20 ADD PUSH1 0x40 MLOAD DUP1 PUSH1 0x40 ADD PUSH1 0x40 MSTORE DUP1 PUSH1 0x1 DUP2 MSTORE PUSH1 0x20 ADD PUSH32 0x4900000000000000000000000000000000000000000000000000000000000000 DUP2 MSTORE POP DUP2 MSTORE POP SWAP1 POP PUSH0 PUSH1 0x40 MLOAD DUP1 PUSH1 0x20 ADD PUSH1 0x40 MSTORE DUP1 PUSH0 DUP2 MSTORE POP SWAP1 POP PUSH0 JUMPDEST PUSH1 0xD DUP2 LT ISZERO PUSH2 0x512 JUMPI JUMPDEST DUP4 DUP2 PUSH1 0xD DUP2 LT PUSH2 0x495 JUMPI PUSH2 0x494 PUSH2 0xBA7 JUMP JUMPDEST JUMPDEST PUSH1 0x20 MUL ADD MLOAD DUP7 LT PUSH2 0x505 JUMPI DUP2 DUP4 DUP3 PUSH1 0xD DUP2 LT PUSH2 0x4B4 JUMPI PUSH2 0x4B3 PUSH2 0xBA7 JUMP JUMPDEST JUMPDEST PUSH1 0x20 MUL ADD MLOAD PUSH1 0x40 MLOAD PUSH1 0x20 ADD PUSH2 0x4CA SWAP3 SWAP2 SWAP1 PUSH2 0xC0E JUMP JUMPDEST PUSH1 0x40 MLOAD PUSH1 0x20 DUP2 DUP4 SUB SUB DUP2 MSTORE SWAP1 PUSH1 0x40 MSTORE SWAP2 POP DUP4 DUP2 PUSH1 0xD DUP2 LT PUSH2 0x4EE JUMPI PUSH2 0x4ED PUSH2 0xBA7 JUMP JUMPDEST JUMPDEST PUSH1 0x20 MUL ADD MLOAD DUP7 PUSH2 0x4FE SWAP2 SWAP1 PUSH2 0xC5E JUMP JUMPDEST SWAP6 POP PUSH2 0x482 JUMP JUMPDEST DUP1 DUP1 PUSH1 0x1 ADD SWAP2 POP POP PUSH2 0x478 JUMP JUMPDEST POP DUP1 SWAP4 POP POP POP POP SWAP2 SWAP1 POP JUMP JUMPDEST PUSH0 DUP1 DUP3 SWAP1 POP PUSH0 DUP1 DUP3 MLOAD SWAP1 POP PUSH0 JUMPDEST DUP2 DUP2 LT ISZERO PUSH2 0x5F2 JUMPI PUSH0 PUSH2 0x55A DUP6 DUP4 DUP2 MLOAD DUP2 LT PUSH2 0x54A JUMPI PUSH2 0x549 PUSH2 0xBA7 JUMP JUMPDEST JUMPDEST PUSH1 0x20 ADD ADD MLOAD PUSH1 0xF8 SHR PUSH1 0xF8 SHL PUSH2 0x5FE JUMP JUMPDEST SWAP1 POP PUSH1 0x1 DUP4 PUSH2 0x569 SWAP2 SWAP1 PUSH2 0xC5E JUMP JUMPDEST DUP3 LT ISZERO PUSH2 0x5D5 JUMPI PUSH0 PUSH2 0x5A3 DUP7 PUSH1 0x1 DUP6 PUSH2 0x582 SWAP2 SWAP1 PUSH2 0xC91 JUMP JUMPDEST DUP2 MLOAD DUP2 LT PUSH2 0x593 JUMPI PUSH2 0x592 PUSH2 0xBA7 JUMP JUMPDEST JUMPDEST PUSH1 0x20 ADD ADD MLOAD PUSH1 0xF8 SHR PUSH1 0xF8 SHL PUSH2 0x5FE JUMP JUMPDEST SWAP1 POP DUP1 DUP3 SLT ISZERO PUSH2 0x5C0 JUMPI DUP2 DUP6 PUSH2 0x5B9 SWAP2 SWAP1 PUSH2 0xCCD JUMP JUMPDEST SWAP5 POP PUSH2 0x5CF JUMP JUMPDEST DUP2 DUP6 PUSH2 0x5CC SWAP2 SWAP1 PUSH2 0xD0D JUMP JUMPDEST SWAP5 POP JUMPDEST POP PUSH2 0x5E4 JUMP JUMPDEST DUP1 DUP5 PUSH2 0x5E1 SWAP2 SWAP1 PUSH2 0xD0D JUMP JUMPDEST SWAP4 POP JUMPDEST POP DUP1 DUP1 PUSH1 0x1 ADD SWAP2 POP POP PUSH2 0x52B JUMP JUMPDEST POP DUP2 SWAP4 POP POP POP POP SWAP2 SWAP1 POP JUMP JUMPDEST PUSH0 PUSH32 0x4900000000000000000000000000000000000000000000000000000000000000 DUP3 PUSH31 0xFFFFFFFFFFFFFFFFFFFFFFFFFFFFFFFFFFFFFFFFFFFFFFFFFFFFFFFFFFFFFF NOT AND SUB PUSH2 0x651 JUMPI PUSH1 0x1 SWAP1 POP PUSH2 0x87A JUMP JUMPDEST PUSH32 0x5600000000000000000000000000000000000000000000000000000000000000 DUP3 PUSH31 0xFFFFFFFFFFFFFFFFFFFFFFFFFFFFFFFFFFFFFFFFFFFFFFFFFFFFFFFFFFFFFF NOT AND SUB PUSH2 0x6A3 JUMPI PUSH1 0x5 SWAP1 POP PUSH2 0x87A JUMP JUMPDEST PUSH32 0x5800000000000000000000000000000000000000000000000000000000000000 DUP3 PUSH31 0xFFFFFFFFFFFFFFFFFFFFFFFFFFFFFFFFFFFFFFFFFFFFFFFFFFFFFFFFFFFFFF NOT AND SUB PUSH2 0x6F5 JUMPI PUSH1 0xA SWAP1 POP PUSH2 0x87A JUMP JUMPDEST PUSH32 0x4C00000000000000000000000000000000000000000000000000000000000000 DUP3 PUSH31 0xFFFFFFFFFFFFFFFFFFFFFFFFFFFFFFFFFFFFFFFFFFFFFFFFFFFFFFFFFFFFFF NOT AND SUB PUSH2 0x747 JUMPI PUSH1 0x32 SWAP1 POP PUSH2 0x87A JUMP JUMPDEST PUSH32 0x4300000000000000000000000000000000000000000000000000000000000000 DUP3 PUSH31 0xFFFFFFFFFFFFFFFFFFFFFFFFFFFFFFFFFFFFFFFFFFFFFFFFFFFFFFFFFFFFFF NOT AND SUB PUSH2 0x799 JUMPI PUSH1 0x64 SWAP1 POP PUSH2 0x87A JUMP JUMPDEST PUSH32 0x4400000000000000000000000000000000000000000000000000000000000000 DUP3 PUSH31 0xFFFFFFFFFFFFFFFFFFFFFFFFFFFFFFFFFFFFFFFFFFFFFFFFFFFFFFFFFFFFFF NOT AND SUB PUSH2 0x7EC JUMPI PUSH2 0x1F4 SWAP1 POP PUSH2 0x87A JUMP JUMPDEST PUSH32 0x4D00000000000000000000000000000000000000000000000000000000000000 DUP3 PUSH31 0xFFFFFFFFFFFFFFFFFFFFFFFFFFFFFFFFFFFFFFFFFFFFFFFFFFFFFFFFFFFFFF NOT AND SUB PUSH2 0x83F JUMPI PUSH2 0x3E8 SWAP1 POP PUSH2 0x87A JUMP JUMPDEST PUSH1 0x40 MLOAD PUSH32 0x8C379A000000000000000000000000000000000000000000000000000000000 DUP2 MSTORE PUSH1 0x4 ADD PUSH2 0x871 SWAP1 PUSH2 0xD98 JUMP JUMPDEST PUSH1 0x40 MLOAD DUP1 SWAP2 SUB SWAP1 REVERT JUMPDEST SWAP2 SWAP1 POP JUMP JUMPDEST PUSH0 PUSH1 0x40 MLOAD SWAP1 POP SWAP1 JUMP JUMPDEST PUSH0 DUP1 REVERT JUMPDEST PUSH0 DUP1 REVERT JUMPDEST PUSH0 DUP2 SWAP1 POP SWAP2 SWAP1 POP JUMP JUMPDEST PUSH2 0x8A2 DUP2 PUSH2 0x890 JUMP JUMPDEST DUP2 EQ PUSH2 0x8AC JUMPI PUSH0 DUP1 REVERT JUMPDEST POP JUMP JUMPDEST PUSH0 DUP2 CALLDATALOAD SWAP1 POP PUSH2 0x8BD DUP2 PUSH2 0x899 JUMP JUMPDEST SWAP3 SWAP2 POP POP JUMP JUMPDEST PUSH0 PUSH1 0x20 DUP3 DUP5 SUB SLT ISZERO PUSH2 0x8D8 JUMPI PUSH2 0x8D7 PUSH2 0x888 JUMP JUMPDEST JUMPDEST PUSH0 PUSH2 0x8E5 DUP5 DUP3 DUP6 ADD PUSH2 0x8AF JUMP JUMPDEST SWAP2 POP POP SWAP3 SWAP2 POP POP JUMP JUMPDEST PUSH0 DUP2 MLOAD SWAP1 POP SWAP2 SWAP1 POP JUMP JUMPDEST PUSH0 DUP3 DUP3 MSTORE PUSH1 0x20 DUP3 ADD SWAP1 POP SWAP3 SWAP2 POP POP JUMP JUMPDEST DUP3 DUP2 DUP4 MCOPY PUSH0 DUP4 DUP4 ADD MSTORE POP POP POP JUMP JUMPDEST PUSH0 PUSH1 0x1F NOT PUSH1 0x1F DUP4 ADD AND SWAP1 POP SWAP2 SWAP1 POP JUMP JUMPDEST PUSH0 PUSH2 0x930 DUP3 PUSH2 0x8EE JUMP JUMPDEST PUSH2 0x93A DUP2 DUP6 PUSH2 0x8F8 JUMP JUMPDEST SWAP4 POP PUSH2 0x94A DUP2 DUP6 PUSH1 0x20 DUP7 ADD PUSH2 0x908 JUMP JUMPDEST PUSH2 0x953 DUP2 PUSH2 0x916 JUMP JUMPDEST DUP5 ADD SWAP2 POP POP SWAP3 SWAP2 POP POP JUMP JUMPDEST PUSH0 PUSH1 0x20 DUP3 ADD SWAP1 POP DUP2 DUP2 SUB PUSH0 DUP4 ADD MSTORE PUSH2 0x976 DUP2 DUP5 PUSH2 0x926 JUMP JUMPDEST SWAP1 POP SWAP3 SWAP2 POP POP JUMP JUMPDEST PUSH0 DUP1 REVERT JUMPDEST PUSH0 DUP1 REVERT JUMPDEST PUSH32 0x4E487B7100000000000000000000000000000000000000000000000000000000 PUSH0 MSTORE PUSH1 0x41 PUSH1 0x4 MSTORE PUSH1 0x24 PUSH0 REVERT JUMPDEST PUSH2 0x9BC DUP3 PUSH2 0x916 JUMP JUMPDEST DUP2 ADD DUP2 DUP2 LT PUSH8 0xFFFFFFFFFFFFFFFF DUP3 GT OR ISZERO PUSH2 0x9DB JUMPI PUSH2 0x9DA PUSH2 0x986 JUMP JUMPDEST JUMPDEST DUP1 PUSH1 0x40 MSTORE POP POP POP JUMP JUMPDEST PUSH0 PUSH2 0x9ED PUSH2 0x87F JUMP JUMPDEST SWAP1 POP PUSH2 0x9F9 DUP3 DUP3 PUSH2 0x9B3 JUMP JUMPDEST SWAP2 SWAP1 POP JUMP JUMPDEST PUSH0 PUSH8 0xFFFFFFFFFFFFFFFF DUP3 GT ISZERO PUSH2 0xA18 JUMPI PUSH2 0xA17 PUSH2 0x986 JUMP JUMPDEST JUMPDEST PUSH2 0xA21 DUP3 PUSH2 0x916 JUMP JUMPDEST SWAP1 POP PUSH1 0x20 DUP2 ADD SWAP1 POP SWAP2 SWAP1 POP JUMP JUMPDEST DUP3 DUP2 DUP4 CALLDATACOPY PUSH0 DUP4 DUP4 ADD MSTORE POP POP POP JUMP JUMPDEST PUSH0 PUSH2 0xA4E PUSH2 0xA49 DUP5 PUSH2 0x9FE JUMP JUMPDEST PUSH2 0x9E4 JUMP JUMPDEST SWAP1 POP DUP3 DUP2 MSTORE PUSH1 0x20 DUP2 ADD DUP5 DUP5 DUP5 ADD GT ISZERO PUSH2 0xA6A JUMPI PUSH2 0xA69 PUSH2 0x982 JUMP JUMPDEST JUMPDEST PUSH2 0xA75 DUP5 DUP3 DUP6 PUSH2 0xA2E JUMP JUMPDEST POP SWAP4 SWAP3 POP POP POP JUMP JUMPDEST PUSH0 DUP3 PUSH1 0x1F DUP4 ADD SLT PUSH2 0xA91 JUMPI PUSH2 0xA90 PUSH2 0x97E JUMP JUMPDEST JUMPDEST DUP2 CALLDATALOAD PUSH2 0xAA1 DUP5 DUP3 PUSH1 0x20 DUP7 ADD PUSH2 0xA3C JUMP JUMPDEST SWAP2 POP POP SWAP3 SWAP2 POP POP JUMP JUMPDEST PUSH0 PUSH1 0x20 DUP3 DUP5 SUB SLT ISZERO PUSH2 0xABF JUMPI PUSH2 0xABE PUSH2 0x888 JUMP JUMPDEST JUMPDEST PUSH0 DUP3 ADD CALLDATALOAD PUSH8 0xFFFFFFFFFFFFFFFF DUP2 GT ISZERO PUSH2 0xADC JUMPI PUSH2 0xADB PUSH2 0x88C JUMP JUMPDEST JUMPDEST PUSH2 0xAE8 DUP5 DUP3 DUP6 ADD PUSH2 0xA7D JUMP JUMPDEST SWAP2 POP POP SWAP3 SWAP2 POP POP JUMP JUMPDEST PUSH2 0xAFA DUP2 PUSH2 0x890 JUMP JUMPDEST DUP3 MSTORE POP POP JUMP JUMPDEST PUSH0 PUSH1 0x20 DUP3 ADD SWAP1 POP PUSH2 0xB13 PUSH0 DUP4 ADD DUP5 PUSH2 0xAF1 JUMP JUMPDEST SWAP3 SWAP2 POP POP JUMP JUMPDEST PUSH32 0x4E756D626572206D757374206265206265747765656E203120616E6420333939 PUSH0 DUP3 ADD MSTORE PUSH32 0x3900000000000000000000000000000000000000000000000000000000000000 PUSH1 0x20 DUP3 ADD MSTORE POP JUMP JUMPDEST PUSH0 PUSH2 0xB73 PUSH1 0x21 DUP4 PUSH2 0x8F8 JUMP JUMPDEST SWAP2 POP PUSH2 0xB7E DUP3 PUSH2 0xB19 JUMP JUMPDEST PUSH1 0x40 DUP3 ADD SWAP1 POP SWAP2 SWAP1 POP JUMP JUMPDEST PUSH0 PUSH1 0x20 DUP3 ADD SWAP1 POP DUP2 DUP2 SUB PUSH0 DUP4 ADD MSTORE PUSH2 0xBA0 DUP2 PUSH2 0xB67 JUMP JUMPDEST SWAP1 POP SWAP2 SWAP1 POP JUMP JUMPDEST PUSH32 0x4E487B7100000000000000000000000000000000000000000000000000000000 PUSH0 MSTORE PUSH1 0x32 PUSH1 0x4 MSTORE PUSH1 0x24 PUSH0 REVERT JUMPDEST PUSH0 DUP2 SWAP1 POP SWAP3 SWAP2 POP POP JUMP JUMPDEST PUSH0 PUSH2 0xBE8 DUP3 PUSH2 0x8EE JUMP JUMPDEST PUSH2 0xBF2 DUP2 DUP6 PUSH2 0xBD4 JUMP JUMPDEST SWAP4 POP PUSH2 0xC02 DUP2 DUP6 PUSH1 0x20 DUP7 ADD PUSH2 0x908 JUMP JUMPDEST DUP1 DUP5 ADD SWAP2 POP POP SWAP3 SWAP2 POP POP JUMP JUMPDEST PUSH0 PUSH2 0xC19 DUP3 DUP6 PUSH2 0xBDE JUMP JUMPDEST SWAP2 POP PUSH2 0xC25 DUP3 DUP5 PUSH2 0xBDE JUMP JUMPDEST SWAP2 POP DUP2 SWAP1 POP SWAP4 SWAP3 POP POP POP JUMP JUMPDEST PUSH32 0x4E487B7100000000000000000000000000000000000000000000000000000000 PUSH0 MSTORE PUSH1 0x11 PUSH1 0x4 MSTORE PUSH1 0x24 PUSH0 REVERT JUMPDEST PUSH0 PUSH2 0xC68 DUP3 PUSH2 0x890 JUMP JUMPDEST SWAP2 POP PUSH2 0xC73 DUP4 PUSH2 0x890 JUMP JUMPDEST SWAP3 POP DUP3 DUP3 SUB SWAP1 POP DUP2 DUP2 GT ISZERO PUSH2 0xC8B JUMPI PUSH2 0xC8A PUSH2 0xC31 JUMP JUMPDEST JUMPDEST SWAP3 SWAP2 POP POP JUMP JUMPDEST PUSH0 PUSH2 0xC9B DUP3 PUSH2 0x890 JUMP JUMPDEST SWAP2 POP PUSH2 0xCA6 DUP4 PUSH2 0x890 JUMP JUMPDEST SWAP3 POP DUP3 DUP3 ADD SWAP1 POP DUP1 DUP3 GT ISZERO PUSH2 0xCBE JUMPI PUSH2 0xCBD PUSH2 0xC31 JUMP JUMPDEST JUMPDEST SWAP3 SWAP2 POP POP JUMP JUMPDEST PUSH0 DUP2 SWAP1 POP SWAP2 SWAP1 POP JUMP JUMPDEST PUSH0 PUSH2 0xCD7 DUP3 PUSH2 0xCC4 JUMP JUMPDEST SWAP2 POP PUSH2 0xCE2 DUP4 PUSH2 0xCC4 JUMP JUMPDEST SWAP3 POP DUP3 DUP3 SUB SWAP1 POP DUP2 DUP2 SLT PUSH0 DUP5 SLT AND DUP3 DUP3 SGT PUSH0 DUP6 SLT ISZERO AND OR ISZERO PUSH2 0xD07 JUMPI PUSH2 0xD06 PUSH2 0xC31 JUMP JUMPDEST JUMPDEST SWAP3 SWAP2 POP POP JUMP JUMPDEST PUSH0 PUSH2 0xD17 DUP3 PUSH2 0xCC4 JUMP JUMPDEST SWAP2 POP PUSH2 0xD22 DUP4 PUSH2 0xCC4 JUMP JUMPDEST SWAP3 POP DUP3 DUP3 ADD SWAP1 POP DUP3 DUP2 SLT ISZERO PUSH0 DUP4 SLT AND DUP4 DUP3 SLT PUSH0 DUP5 SLT ISZERO AND OR ISZERO PUSH2 0xD48 JUMPI PUSH2 0xD47 PUSH2 0xC31 JUMP JUMPDEST JUMPDEST SWAP3 SWAP2 POP POP JUMP JUMPDEST PUSH32 0x496E76616C696420726F6D616E20636861726163746572000000000000000000 PUSH0 DUP3 ADD MSTORE POP JUMP JUMPDEST PUSH0 PUSH2 0xD82 PUSH1 0x17 DUP4 PUSH2 0x8F8 JUMP JUMPDEST SWAP2 POP PUSH2 0xD8D DUP3 PUSH2 0xD4E JUMP JUMPDEST PUSH1 0x20 DUP3 ADD SWAP1 POP SWAP2 SWAP1 POP JUMP JUMPDEST PUSH0 PUSH1 0x20 DUP3 ADD SWAP1 POP DUP2 DUP2 SUB PUSH0 DUP4 ADD MSTORE PUSH2 0xDAF DUP2 PUSH2 0xD76 JUMP JUMPDEST SWAP1 POP SWAP2 SWAP1 POP JUMP INVALID LOG2 PUSH5 0x6970667358 0x22 SLT KECCAK256 0xA9 SIGNEXTEND 0xF9 RETURN 0x4E SWAP2 0xC SWAP6 DUP14 0x4E PUSH9 0x2B916DE5125A59E16F 0xC0 0xDB 0x29 0x26 0x27 SSTORE PUSH2 0xD476 CALLVALUE 0xEF 0xD3 PUSH5 0x736F6C6343 STOP ADDMOD BYTE STOP CALLER "
				},
				"gasEstimates": {
					"creation": {
						"codeDepositCost": "712800",
						"executionCost": "745",
						"totalCost": "713545"
					},
					"external": {
						"intToRoman(uint256)": "infinite",
						"romanToInt(string)": "infinite"
					},
					"internal": {
						"getValue(bytes1)": "infinite"
					}
				},
				"methodIdentifiers": {
					"intToRoman(uint256)": "0cbc513a",
					"romanToInt(string)": "cb159dfe"
				}
			},
			"storageLayout": {
				"storage": [],
				"types": null
			},
			"userdoc": {
				"kind": "user",
				"methods": {},
				"version": 1
			}
		}
	}
}